:100000000C943F000C94AB000C94AB000C94AB0030
:100010000C94AB000C94AB000C94AB000C94AB00B4
:100020000C94AB000C94AB000C94AB000C94AB00A4
:100030000C94AB000C946A010C94AB000C94AB00D4
:100040000C94AB000C94AB000C94AB000C94AB0084
:100050000C949B010C94AB000C94AB000C94AB0083
:100060000C94AB000C94AB000C94AB000C94AB0064
:100070000C94E6010C94B6020C94AB00130311240B
:100080001FBECFEFD4E0DEBFCDBF48E088E190E0F7
:100090000FB6F894A895809360000FBE409360005F
:1000A0008FE081B912B884E087B918B888E18AB9BD
:1000B000519A1BB880E490E09093C5008093C400EF
:1000C00022E02093C000E1ECF0E080E8808336E09D
:1000D0003093C20080818861808384E090E09093B7
:1000E000CD008093CC002093C800E9ECF0E080EADA
:1000F00080833093CA008081886180831092800061
:10010000E1E8F0E0408310928200109285001092A6
:10011000840083EC99E09093890080938800209379
:100120006F0080818260808313E0A0E0B1E001C0B5
:100130001D92A634B107E1F710E0CEE7D0E004C08D
:100140002297FE010E94AD03CC37D107C9F70E9468
:10015000AD000C94B1030C9400005C98789440912D
:10016000440374E061E055E080913D03882309F485
:100170008CC080913D0310923D03882309F485C013
:10018000139A80913F038823C1F090913F0310920E
:100190003F03992391F0892F8150833070F480912F
:1001A0000101981751F090930101109200015093B2
:1001B0000202109203021092100380913E038823E2
:1001C00091F090913E0310923E03992361F080914B
:1001D0000101823041F480911003882321F491328F
:1001E00010F49093100386B190E023E096958795E4
:1001F0002A95E1F7382F317080910202843610F091
:100200001092030280910101833011F020E002C0BE
:100210002091030280910101823061F0833020F44B
:10022000813071F491E00DC080910202843640F07B
:1002300093E007C080910202843610F092E001C082
:1002400090E0222311F4992341F4332311F480E048
:1002500001C080E4922F9F7305C0332311F480E81E
:1002600001C080EC982B8091C00085FFFCCF90935B
:10027000C6008091C00085FFFCCF9093C600442348
:1002800011F078B901C042981398809140038A30E8
:1002900070F080910101813051F060930101109262
:1002A00000015093020210920302109210038091F9
:1002B0000101823029F0833018F4813019F406C02E
:1002C000809102025C9A019AA8954ECF129A5C988E
:1002D0001298F9CF1F920F920FB60F9211248F939D
:1002E00080910202882329F080910202815080933C
:1002F000020280910001882369F480910202843C0B
:1003000028F4809102028B5F809302021092050212
:100310001092040210920001809140038A3028F468
:10032000809140038F5F809340038F910F900FBEA9
:100330000F901F9018951F920F920FB60F921124D5
:100340002F938F939F938091C0002091C600887156
:1003500021F08FEF8093410331C080914103281732
:1003600011F581E080933D038FEF8093410310925C
:100370004003822F90E027FF09C026FF1FC0822F75
:100380008F738430D8F480933F0318C0689415F8B5
:10039000969587951694E1F78170809344032F73A7
:1003A00020933E030BC020934103809140038A3089
:1003B00028F4809140038F5F809340039F918F9139
:1003C0002F910F900FBE0F901F9018951F920F92B4
:1003D0000FB60F9211242F933F934F935F938F93F8
:1003E0009F93AF93BF93EF93FF938091C800509179
:1003F000CE00887109F095C040910602242F30E0AC
:10040000F901E050FF4FDF01AD5EBD4F5C93442327
:1004100049F45A3A09F088C081E08093060250936B
:10042000070282C0413081F45A3A59F482E0809345
:1004300006024093000180910702865580930702CF
:1004400073C01092060270C04A30C0F48091070257
:10045000850F8093070240FF0DC0EE5EFD4F808147
:1004600090E0252F30E0822793278F3F910509F0F8
:1004700058C05C934F5F4093060256C04F3030F433
:1004800080910702850F80930702F4CF4F3009F067
:100490004BC080910702581709F043C01092060222
:1004A000A5E1B3E020E090E0EC91F0E0E050FF4FF8
:1004B0008281893070F4882321F0222351F4292F7E
:1004C000280F1296983111F0985FEECF213278F014
:1004D00001C02FEF80910202843C28F48091020237
:1004E0008B5F8093020210920502109204028091A9
:1004F00002028823C9F480910402821761F480917A
:100500000502833088F48F5F80930502833061F4A5
:100510002093030209C02093040281E08093050226
:1005200003C080E18093060280910602803178F05A
:100530001092060280910202843C28F4809102020B
:100540008B5F809302021092050210920402FF91C9
:10055000EF91BF91AF919F918F915F914F913F919B
:100560002F910F900FBE0F901F9018951F920F9212
:100570000FB60F9211242F938F939F93AF93BF9336
:10058000EF93FF93809111038031A8F180911203C2
:10059000882351F590911003992381F01092100354
:1005A000913208F090E080910101823019F021E051
:1005B00090E005C0992311F02AE001C021E0A92FA5
:1005C000B0E083E0AA0FBB1F8A95E1F7A85FBD4F9B
:1005D000EAE2F3E08D91819383E0E233F807D1F70B
:1005E000B29710822093120310921103809112038C
:1005F00081508093120380911103E82FF0E0E85DB1
:10060000FC4F90818F5F809311039093CE00FF91F8
:10061000EF91BF91AF919F918F912F910F900FBE4E
:100620000F901F90189581E08093010110920001B6
:1006300085E080930202109203021092050210924C
:10064000060210920702109204021092100380E139
:1006500080931103109212038AEA8093130380930C
:10066000140380932803809329031092320310927D
:10067000330310923403109235031092360380E551
:1006800080933703E8E0F2E08FEF108281831282DB
:1006900083831482858316828783389693E0E031C2
:1006A000F90799F740E050E061E070E0842F9A018B
:1006B00027703070FB0102C0EE0FFF1F2A95E2F792
:1006C0009F014F5F5F4F86958695869590E0880FD6
:1006D000991FFA0133E0EE0FFF1F3A95E1F7E05062
:1006E000FF4FE80FF91FE85FFE4F2193209520830D
:1006F00040325105D9F610920201E3E0F1E08FEFAC
:10070000819392E0E230F907D9F720E030E041E050
:1007100050E0FA01022E02C0EE0FFF1F0A94E2F72A
:10072000E050FF4F822F8F5F82832F5F3F4F283033
:10073000310579F781E0809344038093450310925B
:1007400041038AE08093400310923D0310923E03E0
:1007500010923F030895EE0FFF1F0590F491E02DD6
:060760000994F894FFCF9C
:00000001FF
