:100000000C943F000C94A7000C94A7000C94A7003C
:100010000C94A7000C94A7000C94A7000C94A700C4
:100020000C94A7000C94A7000C94A7000C94A700B4
:100030000C94A7000C94AC000C94A7000C94A7009F
:100040000C94A7000C94A7000C94A7000C94A70094
:100050000C94BF000C94D9000C94CF000C94A70012
:100060000C94A7000C94A7000C94A7000C94A70074
:100070000C94E3000C9483010C9479018D011124FC
:100080001FBECFEFD4E0DEBFCDBF08E088E190E037
:100090000FB6F894A895809360000FBE009360009F
:1000A0008FE081B912B884E087B918B838E13AB95D
:1000B000519A1BB864EC70E080E490E0DB0111968B
:1000C0009C938E9341EC50E0EA013883A0ECB0E0C1
:1000D00016E01C93E2ECF0E022E0208384E090E064
:1000E000EB01998388831C93DA013C93208324BD20
:1000F00015BCE1E8F0E000831092820010928500C8
:100100001092840089E698E190938900809388009A
:10011000808184608083EFE6F0E08081826080836C
:1001200012E0A0E0B1E001C01D92AD31B107E1F7EE
:1001300010E0CEE7D0E004C02297FE010E94BD018E
:10014000CC37D107C9F70E94A9000C94C1010C94C7
:1001500000007894A895FECF1F920F920FB60F92D1
:1001600011248F9380910502882319F08150809388
:1001700005028F910F900FBE0F901F9018951F9240
:100180000F920FB60F9211248F938091C00080912F
:10019000C6008F910F900FBE0F901F9018951F9261
:1001A0000F920FB60F9211240F900FBE0F901F9059
:1001B00018951F920F920FB60F9211240F900FBE39
:1001C0000F901F9018951F920F920FB60F92112447
:1001D0002F933F934F935F938F939F93AF93BF93CF
:1001E000EF93FF938091C8005091CE00887109F081
:1001F00061C040910802842F90E0FC01EB5FFE4F4C
:10020000DF01AC5FBE4F5C93423020F45A3AD9F024
:1002100080E051C04A3098F440FF0DC0ED5FFE4FC2
:10022000808190E0252F30E0822793278F3F910532
:1002300009F040C05C934F5F409308023EC04F30CE
:1002400028F45523B9F5842F8F5F35C04F30A9F5B9
:100250005C3F81F580910502882361F5ABE0B2E057
:1002600090E0EC91F0E0EB5FFE4FE081E93068F464
:10027000EE2321F0992349F4982F9E0F129688318E
:1002800011F0885FEECF913220F085E08093050277
:1002900011C080910602891741F4809107028330D2
:1002A00010F083E005C08F5F03C09093060281E0E9
:1002B0008093070280E180930802809108028031D8
:1002C00048F01092080280910502883C18F48B5F78
:1002D00080930502FF91EF91BF91AF919F918F9114
:1002E0005F914F913F912F910F900FBE0F901F90F4
:1002F00018951F920F920FB60F9211240F900FBEF8
:100300000F901F9018951F920F920FB60F92112405
:100310000F900FBE0F901F90189585E080930502F7
:100320001092060210920702109208028AEA809345
:10033000090280930A0210920501E6E0F1E08FEFD6
:10034000819392E0E530F907D9F720E030E041E011
:1003500050E0FA01022E02C0EE0FFF1F0A94E2F7EE
:10036000EB5FFE4F822F8F5F80832F5F3F4F2830E0
:10037000310579F70895EE0FFF1F0590F491E02DF8
:060380000994F894FFCF80
:00000001FF
