:100000000C943F000C94AB000C94AB000C94AB0030
:100010000C94AB000C94AB000C94AB000C94AB00B4
:100020000C94AB000C94AB000C94AB000C94AB00A4
:100030000C94AB000C9428010C94AB000C94AB0016
:100040000C94AB000C94AB000C94AB000C94AB0084
:100050000C9451010C94AB000C94AB000C94AB00CD
:100060000C94AB000C94AB000C94AB000C94AB0064
:100070000C948E010C944A020C94AB00A202112441
:100080001FBECFEFD4E0DEBFCDBF48E088E190E0F7
:100090000FB6F894A895809360000FBE409360005F
:1000A0008FE081B912B884E087B918B888E18AB9BD
:1000B000519A1BB880E490E09093C5008093C400EF
:1000C00022E02093C000E1ECF0E080E8808336E09D
:1000D0003093C20080818861808384E090E09093B7
:1000E000CD008093CC002093C800E9ECF0E080EADA
:1000F00080833093CA008081886180831092800061
:10010000E1E8F0E0408310928200109285001092A6
:10011000840083EC99E09093890080938800209379
:100120006F0080818260808313E0A0E0B1E001C0B5
:100130001D92A534B107E1F710E0CEE7D0E004C08E
:100140002297FE010E943703CC37D107C9F70E94DE
:10015000AD000C943B030C9400005C9A7894509191
:1001600043033091030264E0019A80913D031092B1
:100170003D03882309F46AC0909140031092400324
:10018000992379F0892F8150833058F480910201AE
:10019000981739F090930201109204021092100304
:1001A00035E090913F0310923F03992361F08091D5
:1001B0000201823041F480911003882321F49132AE
:1001C00010F49093100386B190E023E09695879504
:1001D0002A95E1F7482F4170343610F0109204024E
:1001E00080910201833011F020E002C020910402CE
:1001F00080910201823051F0833020F4813051F43B
:1002000091E009C0343630F093E005C0343610F088
:1002100092E001C090E0222311F4992341F4442399
:1002200011F490E001C090E4822F8F7305C0442345
:1002300011F480E801C080EC892B8093C600809384
:10024000C600552311F068B901C04298A8958CCF1B
:100250001F920F920FB60F9211248F938091030279
:10026000882319F081508093030280910101882333
:1002700059F480910302843C18F48B5F809303024D
:100280001092060210920502109201018091000165
:100290008F5F809300018F910F900FBE0F901F9082
:1002A00018951F920F920FB60F9211242F938F93D0
:1002B0009F938091C0002091C600887121F08FEF3C
:1002C00080933E0323C080913E032817E9F481E028
:1002D00080933D03822F90E027FF09C026FF16C0C0
:1002E000822F8F73843090F4809340030FC0689402
:1002F00015F8969587951694E1F7817080934303DE
:100300002F7320933F0302C020933E039F918F9150
:100310002F910F900FBE0F901F9018951F920F9264
:100320000FB60F9211242F933F934F935F938F93A8
:100330009F93AF93BF93EF93FF938091C800509129
:10034000CE00887109F083C040910702842F90E0AD
:10035000FC01EF5FFE4FDF01AE5EBD4F5C934423B7
:1003600029F45A3A09F076C081E072C0413059F45C
:100370005A3A31F482E080930702409301016AC047
:100380001092070267C04A3098F440FF0DC0EF5E3C
:10039000FD4F808190E0252F30E0822793278F3F0B
:1003A000910509F054C05C934F5F4093070252C01F
:1003B0004F3030F4552309F04AC0842F8F5F48C076
:1003C0004F3009F047C0503509F041C01092070284
:1003D000A5E1B3E090E020E0EC91F0E0EF5FFE4FAC
:1003E0008281893070F4882321F0992351F4922F6F
:1003F000980F1296283111F0285FEECF913268F0F5
:1004000001C09FEF80910302843C18F48B5F8093BE
:1004100003021092060210920502809103028823C3
:10042000C9F480910502891761F480910602833036
:1004300088F48F5F80930602833061F49093040206
:1004400009C09093050281E08093060203C080E119
:100450008093070280910702803168F010920702B2
:1004600080910302843C18F48B5F80930302109206
:10047000060210920502FF91EF91BF91AF919F91FB
:100480008F915F914F913F912F910F900FBE0F90E1
:100490001F9018951F920F920FB60F9211248F93F1
:1004A0009F93AF93BF93EF93FF938091110380319C
:1004B00090F180911203882339F5809102018230F6
:1004C00061F480911003813240F4809110038823FD
:1004D00011F491E004C09AE002C091E080E0A82FFE
:1004E000B0E083E0AA0FBB1F8A95E1F7A85FBD4F7C
:1004F000EAE2F3E08D91819383E0E233F807D1F7EC
:10050000B2971082909312031092110380911203FC
:1005100081508093120380911103E82FF0E0E85D91
:10052000FC4F90818F5F809311039093CE00FF91D9
:10053000EF91BF91AF919F918F910F900FBE0F9050
:100540001F90189581E0809302011092010185E0CF
:100550008093030210920402109206021092070286
:10056000109205021092100380E180931103109203
:1005700012038AEA80931303809314038093280361
:1005800080932903109232031092330310923403A4
:10059000109235031092360380E580933703E8E02C
:1005A000F2E08FEF1082818312828383148285832D
:1005B00016828783389693E0E031F90799F740E097
:1005C00050E061E070E0842F9A0127703070FB01E9
:1005D00002C0EE0FFF1F2A95E2F79F014F5F5F4FAA
:1005E00086958695869590E0880F991FFA0133E0ED
:1005F000EE0FFF1F3A95E1F7EF5FFE4FE80FF91F8F
:10060000E95FFE4F21932095208340325105D9F6B2
:1006100010920301E4E0F1E08FEF819392E0E33088
:10062000F907D9F720E030E041E050E0FA01022E6E
:1006300002C0EE0FFF1F0A94E2F7EF5FFE4F822F1A
:100640008F5F82832F5F3F4F2830310579F781E03C
:10065000809343038093440310923E0310923D0322
:1006600010923F03109240030895EE0FFF1F059074
:0A067000F491E02D0994F894FFCFF7
:00000001FF
