:100000000C943F000C94A7000C94A7000C94A7003C
:100010000C94A7000C94A7000C94A7000C94A700C4
:100020000C94A7000C94A7000C94A7000C94A700B4
:100030000C94A7000C94AC000C94A7000C94A7009F
:100040000C94A7000C94A7000C94A7000C94A70094
:100050000C94BF000C94D9000C94CF000C94A70012
:100060000C94A7000C94A7000C94A7000C94A70074
:100070000C94E3000C9480010C9476018A01112405
:100080001FBECFEFD4E0DEBFCDBF08E088E190E037
:100090000FB6F894A895809360000FBE009360009F
:1000A0008FE081B912B884E087B918B838E13AB95D
:1000B000519A1BB864EC70E080E490E0DB0111968B
:1000C0009C938E9341EC50E0EA013883A0ECB0E0C1
:1000D00016E01C93E2ECF0E022E0208384E090E064
:1000E000EB01998388831C93DA013C93208324BD20
:1000F00015BCE1E8F0E000831092820010928500C8
:100100001092840089E698E190938900809388009A
:10011000808184608083EFE6F0E08081826080836C
:1001200012E0A0E0B1E001C01D92AD31B107E1F7EE
:1001300010E0CEE7D0E004C02297FE010E949401B7
:10014000CC37D107C9F70E94A9000C9498010C94F0
:1001500000007894A895FECF1F920F920FB60F92D1
:1001600011248F9380910502882319F08150809388
:1001700005028F910F900FBE0F901F9018951F9240
:100180000F920FB60F9211248F938091C00080912F
:10019000C6008F910F900FBE0F901F9018951F9261
:1001A0000F920FB60F9211240F900FBE0F901F9059
:1001B00018951F920F920FB60F9211240F900FBE39
:1001C0000F901F9018951F920F920FB60F92112447
:1001D0002F933F934F935F938F939F93AF93BF93CF
:1001E000EF93FF938091C8005091CE0040911C0284
:1001F000242F30E0F901EB5FFE4FDF01AD5FBE4F12
:100200005C93887109F053C0423020F45A3A09F0E7
:100210004FC018C04A3090F440FF0CC0EE5FFE4F54
:10022000808190E0252F30E0822793278F3F910532
:10023000F1F55C934F5F40931C023CC04F3028F4B3
:100240005523A9F5842F8F5F33C04F3099F55C3F5C
:1002500071F580910502882369F5E7E0F1E020E07F
:1002600090E08081893068F4882321F0222349F4CA
:10027000292F280F3296983111F0985FF2CF213252
:1002800020F085E08093050215C080910602821758
:1002900041F480910702833010F083E005C08F5F46
:1002A00003C02093060281E08093070203C080E12F
:1002B00080931C0280911C02803148F010921C0235
:1002C00080910502883C18F48B5F80930502FF91B2
:1002D000EF91BF91AF919F918F915F914F913F911E
:1002E0002F910F900FBE0F901F9018951F920F9295
:1002F0000FB60F9211240F900FBE0F901F901895FC
:100300001F920F920FB60F9211240F900FBE0F90F5
:100310001F90189585E080930502109206021092B6
:1003200007020895EE0FFF1F0590F491E02D099448
:04033000F894FFCF6F
:00000001FF
