:100000000C943F000C94A8000C94A8000C94A80039
:100010000C94A8000C94A8000C94A8000C94A800C0
:100020000C94A8000C94A8000C94A8000C94A800B0
:100030000C94A8000C94CA000C94A8000C94A8007E
:100040000C94A8000C94A8000C94A8000C94A80090
:100050000C94DD000C94A8000C94A8000C94A8004B
:100060000C94A8000C94A8000C94A8000C94A80070
:100070000C9428010C94EE010C94E401F801112475
:100080001FBECFEFD4E0DEBFCDBF48E088E190E0F7
:100090000FB6F894A895809360000FBE409360005F
:1000A0008FE081B912B884E087B918B858E15AB91D
:1000B000519A1BB880E490E09093C5008093C400EF
:1000C000E1ECF0E0408336E03093C00022E0209382
:1000D000C20080818068808384E090E09093CD00AE
:1000E0008093CC003093C8005093C9002093CA007D
:1000F00024BD15BCE1E8F0E040831092820010922C
:1001000085001092840089E698E19093890080939D
:100110008800808184608083EFE6F0E080818260E7
:10012000808312E0A0E0B1E001C01D92A833B107C6
:10013000E1F710E0CEE7D0E004C02297FE010E9474
:100140003702CC37D107C9F70E94AA000C943B02B2
:100150000C9400007894209136029091370280919F
:100160003002882371F0992311F080EC01C080E8FF
:100170009091C0008093C6009091C00080958093BC
:10018000C60084E0222311F088B901C0429898B1DA
:10019000A895F8CF1F920F920FB60F9211248F934C
:1001A00080910102823018F08150809301028F917A
:1001B0000F900FBE0F901F9018951F920F920FB6C1
:1001C0000F9211242F933F934F935F938F939F939D
:1001D0008091C0005091C600887121F08FEF80930C
:1001E00031022BC040913102242F30E0852F90E066
:1001F000822793278F3F9105F1F481E080933002AD
:100200008FEF8093310247FF09C046FF16C0842F4D
:100210008F73843090F4809333020FC086E036955C
:1002200027958A95E1F7822F8170809336024F736C
:100230004093320202C0509331029F918F915F919F
:100240004F913F912F910F900FBE0F901F901895D7
:100250001F920F920FB60F9211242F933F934F933B
:100260005F938F939F93AF93BF93EF93FF9380918F
:10027000C8005091CE00887109F083C040910502FA
:10028000842F90E0FC01E050FF4FDF01A85FBE4FDC
:100290005C93442329F45A3A09F076C081E072C095
:1002A000413059F45A3A31F482E080930502409388
:1002B00000016AC01092050267C04A3098F440FFFE
:1002C0000DC0E95FFE4F808190E0252F30E082274E
:1002D00093278F3F910509F054C05C934F5F409383
:1002E000050252C04F3030F4552309F04AC0842F24
:1002F0008F5F48C04F3009F047C05C3F09F041C0F4
:1003000010920502AAE0B2E090E020E0EC91F0E06B
:10031000E050FF4F8181893070F4882321F09923C8
:1003200051F4922F980F1296283111F0285FEECFDA
:10033000913268F001C09FEF80910102883C18F46F
:100340008B5F80930102109204021092030280914D
:1003500001028823C9F480910302891761F4809116
:100360000402843088F48F5F80930402833061F448
:100370009093020209C09093030281E080930402EB
:1003800003C080E18093050280910502803168F00E
:100390001092050280910102883C18F48B5F8093D3
:1003A00001021092040210920302FF91EF91BF919B
:1003B000AF919F918F915F914F913F912F910F90AE
:1003C0000FBE0F901F9018951F920F920FB60F92AD
:1003D00011240F900FBE0F901F9018951F920F922F
:1003E0000FB60F9211240F900FBE0F901F9018950B
:1003F0001092000185E08093010210920202109297
:100400000402109205028AEA80930802809309028E
:1004100010920101E2E0F1E08FEF819392E0E13090
:10042000F907D9F720E030E041E050E0FA01022E70
:1004300002C0EE0FFF1F0A94E2F7E050FF4F822F39
:100440008F5F81832F5F3F4F2830310579F781E03F
:10045000809336028093370210923102109230025C
:1004600010923202109233020895EE0FFF1F059092
:0A047000F491E02D0994F894FFCFF9
:00000001FF
