:100000000C943F000C94AB000C94AB000C94AB0030
:100010000C94AB000C94AB000C94AB000C94AB00B4
:100020000C94AB000C94AB000C94AB000C94AB00A4
:100030000C94AB000C943F010C94AB000C94AB00FF
:100040000C94AB000C94AB000C94AB000C94AB0084
:100050000C9463010C94AB000C94AB000C94AB00BB
:100060000C94AB000C94AB000C94AB000C94AB0064
:100070000C94A3010C945F020C94AB00BC021124FD
:100080001FBECFEFD4E0DEBFCDBF48E088E190E0F7
:100090000FB6F894A895809360000FBE409360005F
:1000A0008FE081B912B884E087B918B888E18AB9BD
:1000B000519A1BB880E490E09093C5008093C400EF
:1000C00022E02093C000E1ECF0E080E8808336E09D
:1000D0003093C20080818861808384E090E09093B7
:1000E000CD008093CC002093C800E9ECF0E080EADA
:1000F00080833093CA008081886180831092800061
:10010000E1E8F0E0408310928200109285001092A6
:10011000840083EC99E09093890080938800209379
:100120006F0080818260808313E0A0E0B1E001C0B5
:100130001D92A434B107E1F710E0CEE7D0E004C08F
:100140002297FE010E945103CC37D107C9F70E94C4
:10015000AD000C9455030C9400005C9A7894509177
:1001600042033091020264E080913C03882309F449
:1001700083C080913C0310923C03882309F47CC027
:10018000139A80913F038823A9F090913F03109226
:100190003F03992379F0892F8150833058F480915F
:1001A0000101981739F09093010110920302109207
:1001B0000F0335E080913E03882391F090913E0338
:1001C00010923E03992361F080910101823041F445
:1001D00080910F03882321F4913210F490930F0340
:1001E00086B190E023E0969587952A95E1F7482F10
:1001F0004170343610F01092030280910101833077
:1002000011F020E002C020910302809101018230B0
:1002100051F0833020F4813051F491E009C034363C
:1002200030F093E005C0343610F092E001C090E069
:10023000222311F4992341F4442311F480E001C0F6
:1002400080E4922F9F7305C0442311F480E801C01D
:1002500080EC982B8091C00085FFFCCF9093C60066
:100260008091C00085FFFCCF9093C600552311F00C
:1002700068B901C042981398019AA89575CF1F924A
:100280000F920FB60F9211248F9380910202882350
:1002900019F081508093020280910001882359F463
:1002A00080910202843C18F48B5F809302021092CA
:1002B000050210920402109200018F910F900FBE60
:1002C0000F901F9018951F920F920FB60F92112446
:1002D0002F938F939F938091C0002091C6008871C7
:1002E00021F08FEF80933D0326C080913D032817B6
:1002F00001F581E080933C038FEF80933D03822FD3
:1003000090E027FF09C026FF16C0822F8F7384302C
:1003100090F480933F030FC0689415F896958795E5
:100320001694E1F78170809342032F7320933E036C
:1003300002C020933D039F918F912F910F900FBE8C
:100340000F901F9018951F920F920FB60F921124C5
:100350002F933F934F935F938F939F93AF93BF934D
:10036000EF93FF938091C8005091CE00887109F0FF
:1003700083C040910602842F90E0FC01E050FF4FC3
:10038000DF01AE5EBD4F5C93442329F45A3A09F075
:1003900076C081E072C0413059F45A3A31F482E0BB
:1003A00080930602409300016AC01092060267C063
:1003B0004A3098F440FF0DC0EF5EFD4F808190E021
:1003C000252F30E0822793278F3F910509F054C0F5
:1003D0005C934F5F4093060252C04F3030F4552378
:1003E00009F04AC0842F8F5F48C04F3009F047C0E2
:1003F000503509F041C010920602A4E1B3E090E04C
:1004000020E0EC91F0E0E050FF4F8281893070F401
:10041000882321F0992351F4922F980F12962831B6
:1004200011F0285FEECF913268F001C09FEF80910C
:100430000202843C18F48B5F809302021092050242
:1004400010920402809102028823C9F48091040270
:10045000891761F480910502833088F48F5F80935F
:100460000502833061F49093030209C09093040263
:1004700081E08093050203C080E1809306028091B1
:100480000602803168F01092060280910202843CDC
:1004900018F48B5F809302021092050210920402FE
:1004A000FF91EF91BF91AF919F918F915F914F918C
:1004B0003F912F910F900FBE0F901F9018951F9294
:1004C0000F920FB60F9211242F938F939F93AF9398
:1004D000BF93EF93FF93809110038031A8F1809137
:1004E0001103882351F590910F03992381F0109205
:1004F0000F03913208F090E080910101823019F0F1
:1005000021E090E005C0992311F02AE001C021E02C
:10051000A92FB0E083E0AA0FBB1F8A95E1F7A95F7E
:10052000BD4FE9E2F3E08D91819383E0E133F80779
:10053000D1F7B2971082209311031092100380918B
:10054000110381508093110380911003E82FF0E094
:10055000E95DFC4F90818F5F809310039093CE00F4
:10056000FF91EF91BF91AF919F918F912F910F903C
:100570000FBE0F901F90189581E08093010110929B
:10058000000185E08093020210920302109205029E
:10059000109206021092040210920F0380E18093E1
:1005A0001003109211038AEA8093120380931303BD
:1005B0008093270380932803109231031092320313
:1005C00010923303109234031092350380E5809328
:1005D0003603E7E0F2E08FEF10828183128283839B
:1005E0001482858316828783389693E0EF30F9076B
:1005F00099F740E050E061E070E0842F9A012770A5
:100600003070FB0102C0EE0FFF1F2A95E2F79F0139
:100610004F5F5F4F86958695869590E0880F991F6E
:10062000FA0133E0EE0FFF1F3A95E1F7E050FF4F7C
:10063000E80FF91FE95FFE4F219320952083403298
:100640005105D9F610920201E3E0F1E08FEF8193BA
:1006500092E0E230F907D9F720E030E041E050E0E5
:10066000FA01022E02C0EE0FFF1F0A94E2F7E050DB
:10067000FF4F822F8F5F82832F5F3F4F28303105DE
:1006800079F781E0809342038093430310923D0306
:1006900010923C0310923E0310923F030895EE0F18
:0E06A000FF1F0590F491E02D0994F894FFCF10
:00000001FF
