:100000003EC00000A6C00000A4C00000A2C00000C6
:10001000A0C000009EC000009CC000009AC000006C
:1000200098C0000096C0000094C0000092C000007C
:1000300090C000005EC100008CC000008AC00000BB
:1000400088C0000086C0000084C0000082C000009C
:1000500081C100007EC000007CC000007AC00000AA
:1000600078C0000076C0000074C0000072C00000BC
:10007000C2C1000090C200006CC00000280311241F
:100080001FBECFEFD4E0DEBFCDBF38E088E190E007
:100090000FB6F894A895809360000FBE309360006F
:1000A0008FE081B912B884E087B918B888E18AB9BD
:1000B000519A1BB88CE290E09093C5008093C400E5
:1000C00022E02093C000E1ECF0E080E8808386E24B
:1000D0008093C20080818861808384E090E0909367
:1000E000CD008093CC002093C800E9ECF0E080EADA
:1000F000808386E08093CA0080818861808310922B
:100100008000E1E8F0E030831092820010928500D8
:100110001092840083EC99E090938900809388008A
:1001200020936F0080818260808313E0A0E0B1E0C3
:1001300001C01D92A634B107E1F710E0CEE7D0E090
:1001400003C02297FE011ED3CC37D107D1F702D0CE
:100150001DC356CF5C98789441E035E080913D0313
:10016000882309F490C080913D0310923D038823B9
:1001700009F489C0139A80913F038823C1F09091BC
:100180003F0310923F03992391F0892F81508330D0
:1001900070F480910101981751F090930101109231
:1001A000000130930202109203021092100380911A
:1001B0003E03882391F090913E0310923E039923D1
:1001C00061F080910101823041F480911003882315
:1001D00021F4913210F49093100386B190E023E063
:1001E000969587952A95E1F78170809345038091D4
:1001F0000202843610F010920302809101018330D4
:1002000011F020E002C020910302809101018230B0
:1002100061F0833020F4813071F491E00DC0809161
:100220000202843640F093E007C0809102028436D7
:1002300010F092E001C090E0222311F4992339F4E8
:1002400080914503811180E4922F9F7307C08091B4
:100250004503882311F480E801C080EC982B80913D
:10026000C00085FFFCCF9093C6008091C00085FF41
:10027000FCCF9093C60080914403882311F0429AEA
:1002800001C042981398809140038A3088F0809191
:100290000101813051F0409301011092000130932F
:1002A00002021092030210921003429A109801C0A9
:1002B000109A80910101823029F0833018F4813046
:1002C00019F413C0809102025C9A8091010182307E
:1002D00029F0833018F4813029F409C0809102029A
:1002E000843628F4119AA89539CF5C98EECF1198EE
:1002F000FACF1F920F920FB60F9211248F93809115
:100300000202882329F08091020281508093020228
:1003100080910001882369F480910202843C28F4D2
:10032000809102028B5F809302021092050210926C
:10033000040210920001809140038A3028F48091D9
:1003400040038F5F809340038F910F900FBE0F90FB
:100350001F9018951F920F920FB60F9211242F9392
:100360004F935F938F939F938091C0002091C6001D
:100370008C7121F08FEF8093410333C08091410352
:10038000281721F52F3F11F181E080933D038FEF76
:100390008093410310924003422F50E0CA0156E07F
:1003A000969587955A95E1F781708093440327FFCE
:1003B00009C025FF16C0822F8F71843090F480937E
:1003C0003F030FC02F7320933E030BC020934103C4
:1003D000809140038A3028F4809140038F5F80939E
:1003E00040039F918F915F914F912F910F900FBE7E
:1003F0000F901F9018951F920F920FB60F92112415
:100400002F933F934F935F938F939F93AF93BF939C
:10041000EF93FF938091C8005091CE00887109F04E
:1004200095C040910602242F30E0F901E050FF4FC3
:10043000DF01AD5EBD4F5C93442349F45A3A09F0A5
:1004400088C081E0809306025093070282C0413049
:1004500081F45A3A59F482E08093060240930001F5
:100460008091070286558093070273C0109206029E
:1004700070C04A30C0F480910702850F8093070254
:1004800040FF0DC0EE5EFD4F808190E0252F30E0F3
:10049000822793278F3F910509F058C05C934F5FE7
:1004A0004093060256C04F3030F480910702850F0A
:1004B00080930702F4CF4F3009F04BC080910702C0
:1004C000581709F043C010920602A5E1B3E020E0FE
:1004D00090E0EC91F0E0E050FF4F8281893070F4C1
:1004E000882321F0222351F4292F280F12969831C6
:1004F00011F0985FEECF213278F001C02FEF80919C
:100500000202843C28F4809102028B5F80930202F5
:100510001092050210920402809102028823C9F40D
:1005200080910402821761F480910502833088F47F
:100530008F5F80930502833061F42093030209C02A
:100540002093040281E08093050203C080E1809340
:10055000060280910602803178F0109206028091A6
:100560000202843C28F4809102028B5F8093020295
:100570001092050210920402FF91EF91BF91AF918A
:100580009F918F915F914F913F912F910F900FBE4F
:100590000F901F9018951F920F920FB60F92112473
:1005A0002F938F939F93AF93BF93EF93FF9380917C
:1005B00011038031A8F180911203882351F59091A5
:1005C0001003992381F010921003913208F090E00B
:1005D00080910101823019F021E090E005C099235B
:1005E00011F02AE001C021E0A92FB0E0E3E0AA0F5A
:1005F000BB1FEA95E1F7A85FBD4FEAE2F3E08D91FA
:10060000819383E0E233F807D1F7B2971082209309
:1006100012031092110380911203815080931203F0
:1006200080911103E82FF0E0E85DFC4F90818F5F2F
:10063000809311039093CE00FF91EF91BF91AF9102
:100640009F918F912F910F900FBE0F901F90189533
:1006500081E0809301011092000185E08093020205
:1006600010920302109205021092060210920702E5
:10067000109204021092100380E1809311031092F3
:1006800012038AEA80931303809314038093280350
:100690008093290310923203109233031092340393
:1006A000109235031092360380E580933703E8E01B
:1006B000F2E08FEF1082818312828383148285831C
:1006C00016828783389693E0E031F90799F740E086
:1006D00050E061E070E0842F9A0127703070FB01D8
:1006E00002C0EE0FFF1F2A95E2F79F014F5F5F4F99
:1006F00086958695869590E0880F991FFA01A3E06C
:10070000EE0FFF1FAA95E1F7E050FF4FE80FF91F2A
:10071000E85FFE4F21932095208340325105D9F6A2
:1007200010920201E3E0F1E08FEF819392E0E2307A
:10073000F907D9F720E030E041E050E0FA01022E5D
:1007400002C0EE0FFF1F0A94E2F7E050FF4F822F26
:100750008F5F82832F5F3F4F2830310579F781E02B
:100760008093440380934503109241038AE0809371
:10077000400310923D0310923E0310923F030895F0
:10078000EE0FFF1F0590F491E02D0994F894FFCF30
:00000001FF
