:1000000042C10000B6C10000B4C10000B2C100008E
:10001000B0C10000AEC10000ACC10000AAC1000028
:10002000A8C10000A6C10000A4C10000A2C1000038
:10003000A0C100000C94E1099CC100009AC100001D
:1000400098C1000096C1000094C1000092C1000058
:100050000C945E088EC100008CC100008AC10000B3
:1000600088C1000086C1000084C1000082C1000078
:100070000C94AF090C9478090C944A0900C1814092
:1000800001C0804101C0804100C1814001C0804168
:1000900000C1814000C1814001C0804101C0804158
:1000A00000C1814000C1814001C0804100C1814048
:1000B00001C0804101C0804100C1814001C0804138
:1000C00000C1814000C1814001C0804100C1814028
:1000D00001C0804101C0804100C1814000C1814018
:1000E00001C0804101C0804100C1814001C0804108
:1000F00000C1814000C1814001C0804101C08041F8
:1001000000C1814000C1814001C0804100C18140E7
:1001100001C0804101C0804100C1814000C18140D7
:1001200001C0804101C0804100C1814001C08041C7
:1001300000C1814000C1814001C0804100C18140B7
:1001400001C0804101C0804100C1814001C08041A7
:1001500000C1814000C1814001C0804101C0804197
:1001600000C1814000C1814001C0804100C1814087
:1001700001C0804101C0804100C1814000C0C10177
:10018000C30302C2C60607C705C5C404CC0C0DCD07
:100190000FCFCE0E0ACACB0BC90908C8D81819D977
:1001A0001BDBDA1A1EDEDF1FDD1D1CDC14D4D515A7
:1001B000D71716D6D21213D311D1D010F03031F197
:1001C00033F3F23236F6F737F53534F43CFCFD3DC7
:1001D000FF3F3EFEFA3A3BFB39F9F83828E8E929B7
:1001E000EB2B2AEAEE2E2FEF2DEDEC2CE42425E567
:1001F00027E7E62622E2E323E12120E0A06061A1D7
:1002000063A3A26266A6A767A56564A46CACAD6D86
:10021000AF6F6EAEAA6A6BAB69A9A86878B8B979F6
:10022000BB7B7ABABE7E7FBF7DBDBC7CB47475B526
:1002300077B7B67672B2B373B17170B05090915116
:100240009353529296565797559594549C5C5D9D46
:100250005F9F9E5E5A9A9B5B995958988848498936
:100260004B8B8A4A4E8E8F4F8D4D4C8C44848545E6
:100270008747468682424383418180405669727433
:1002800075616C00A90811241FBECFEFD4E0DEBF5A
:10029000CDBF58E088E190E00FB6F894A895809320
:1002A00060000FBE509360008FE081B912B884E007
:1002B00087B918B888E18AB9519A1BB880E490E0F0
:1002C0009093C5008093C40022E02093C000E1EC2D
:1002D000F0E040E8408336E03093C20080818861DE
:1002E000808385E190E09093CD008093CC002093B3
:1002F000C800E9ECF0E040833093CA00808180615F
:10030000808310928000E1E8F0E050831092820038
:10031000109285001092840086E791E09093890006
:100320008093880020936F0080818260808311E039
:10033000A0E0B1E0E8E0F5E102C005900D92A43242
:10034000B107D9F713E0A4E2B1E001C01D92A239D0
:10035000B107E1F712E0C6E8D2E004C02297FE013F
:100360000E947E0AC438D107C9F70E94080A0C947B
:10037000820A46CEFC0184E091E09183808310A242
:100380008FEF81A312A213A215A214A217A216A284
:100390000895DC0190968C919097853099F493960E
:1003A0009C91939792968C919297981758F4939664
:1003B0008C919397FD01E80FF11D92818F5F9396C9
:1003C0008C9301C090E0892F0895EF92FF920F93D4
:1003D0001F93CF93DF93EC017A018B01622F70E0C2
:1003E00080E090E021E0E2162BE4F20620E0020734
:1003F00020E0120758F028E93AE340E050E00E947C
:100400003B0A2EEE32E040E050E012C0A801970116
:100410000E943B0A2CE434E040E050E00E945A0A7B
:10042000CA01B90128E93AE340E050E00E943B0AE2
:100430000E945A0A2EA33FA3C901DF91CF911F91B9
:100440000F91FF90EF900895FC01862F8150873F18
:1004500010F080E0089561A381E00895CF93DF93C9
:10046000582F282F392FD9012FEF4FEF11C0129697
:100470008C9112974827C42FD0E0CE0184589F4F0B
:10048000FC0144914227C458DE4FFE01249111968D
:100490008A2F851B861758F3942F80E030E0282B95
:1004A000392BC901DF91CF9108950F931F938C01D0
:1004B000FC0162A1D3DFF80122A1E20FF11D9283BA
:1004C0002F5FF80122A392A1E90FF11D82839F5FA4
:1004D000F80192A31F910F910895DC0181E092969B
:1004E0008C93929792969C919297FD01E90FF11D42
:1004F0008281806882839F5F92969C939297929666
:100500008C919297FD01E80FF11D62838F5F9296A7
:100510008C930895FC01663050F4613021F412A2EE
:1005200015A214A203C0653009F413A260A30895B4
:100530000F931F93CF93DF93EC019A819F3F49F173
:1005400089A1891731F58AA1843018F40FEF1FEFC4
:100550000EC08AA12AA1FE01E80FF11D908180E062
:10056000FE01E20FF11D21818C01020F111D6AA114
:100570006250CE0173DF0817190711F480E004C040
:10058000CE0161E0C7DF82E0DF91CF911F910F9133
:100590000895CE0161E0BEDF81E0F6CF0F931F9397
:1005A000CF93DF93EC010CA11DA128A1213011F004
:1005B0002230D1F488E8083B180780F48EA19FA16F
:1005C000080F191F88E8083B180740F0213049F44C
:1005D0008AA1843030F0CE0163E09CDF1DA30CA320
:1005E00003C0CE0161E0F9CFDF91CF911F910F9150
:1005F00008951F93CF93DF93EC011AA188A1813056
:1006000081F4112349F08CA19DA188599A4388F067
:10061000CE0162E07FDF05C0FE01E10FF11D6283C4
:100620001F5F1DA21CA21AA38AA1DF91CF911F9167
:1006300008951E31B0F7F0CF6F927F928F929F9204
:10064000AF92BF92CF92DF92EF92FF920F931F93E0
:10065000DF93CF930F92CDB7DEB78C01DC011496F8
:100660004C91149715963C91159716969C91169758
:1006700080E017962C915C01A20EB11CC501019778
:10068000809718F0C80163E03BC0C501079623E0DE
:10069000969587952A95E1F7F801848323E005C0B4
:1006A000F801E20FF11D12822F5F922F9350D801B3
:1006B00014968C911497981798F3C32EDD24089400
:1006C000C11CD11C942F80E0C80ED91E92962C9389
:1006D000EE24FF243E010894611C711C91E0892ED8
:1006E000912C2DC01982D801ED91FC910190F081DF
:1006F000E02DC801A3010995833029F4C80162E007
:10070000ECDE80E023C089818823B1F0F70183E02B
:10071000F695E7958A95E1F73396E00FF11FC7014B
:1007200087709070940102C0220F331F8A95E2F700
:10073000C9012281282B22830894E11CF11CB701F6
:100740006C0D7D1DEA14FB0468F281E00F90CF91DF
:10075000DF911F910F91FF90EF90DF90CF90BF90AE
:10076000AF909F908F907F906F9008956F927F923F
:100770008F929F92AF92BF92CF92DF92EF92FF92B1
:100780000F931F93DF93CF930F92CDB7DEB78C01FA
:10079000DC0114964C91149715963C91159716967A
:1007A0009C91169780E017962C915C01A20EB11CCB
:1007B000C5010197809718F0C80163E03BC0C501EF
:1007C000079653E0969587955A95E1F7F80184834B
:1007D00023E005C0F801E20FF11D12822F5F922F76
:1007E0009350D80114968C911497981798F3C32EB0
:1007F000DD240894C11CD11C942F80E0C80ED91EA2
:1008000092962C93EE24FF243E010894611C711CE7
:1008100041E0842E912C2DC01982D801ED91FC91DC
:100820000280F381E02DC801A3010995833029F4EA
:10083000C80162E052DE80E023C089818823B1F0E4
:10084000F70133E0F695E7953A95E1F73396E00F37
:10085000F11FC70187709070940102C0220F331FEF
:100860008A95E2F7C9012281282B22830894E11C92
:10087000F11CB7016C0D7D1DEA14FB0468F281E0E8
:100880000F90CF91DF911F910F91FF90EF90DF902C
:10089000CF90BF90AF909F908F907F906F90089572
:1008A0004F925F926F927F928F929F92AF92BF9280
:1008B000CF92DF92EF92FF920F931F93DF93CF932C
:1008C00000D0CDB7DEB78C01DC0114964C911497A3
:1008D00015963C91159716969C91169780E0179661
:1008E0002C914C01820E911CC4010197089718F0BD
:1008F000C80163E03DC0C401880F991FF8018483DB
:1009000023E005C0F801E20FF11D12822F5F922F44
:100910009350D80114968C911497981798F3A32E9E
:10092000BB240894A11CB11C942F80E0A80EB91E12
:1009300092962C936801EE24FF2444244A94542C6C
:100940003E010894611C711C21C05A824982D80161
:10095000ED91FC910480F581E02DC801A30109957A
:10096000E2E0F0E0CE0EDF1E833029F4C80162E041
:10097000B4DD80E012C099818A81D60113968C93F0
:10098000139714969C930894E11CF11CB7016A0D0F
:100990007B1DE814F904C8F281E00F900F90CF910D
:1009A000DF911F910F91FF90EF90DF90CF90BF905C
:1009B000AF909F908F907F906F905F904F90089531
:1009C0004F925F926F927F928F929F92AF92BF925F
:1009D000CF92DF92EF92FF920F931F93DF93CF930B
:1009E00000D0CDB7DEB78C01DC0114964C91149782
:1009F00015963C91159716969C91169780E0179640
:100A00002C914C01820E911CC4010197089718F09B
:100A1000C80163E03DC0C401880F991FF8018483B9
:100A200023E005C0F801E20FF11D12822F5F922F23
:100A30009350D80114968C911497981798F3A32E7D
:100A4000BB240894A11CB11C942F80E0A80EB91EF1
:100A500092962C936801EE24FF2444244A94542C4B
:100A60003E010894611C711C21C05A824982D80140
:100A7000ED91FC910680F781E02DC801A301099555
:100A8000E2E0F0E0CE0EDF1E833029F4C80162E020
:100A900024DD80E012C099818A81D60113968C935F
:100AA000139714969C930894E11CF11CB7016A0DEE
:100AB0007B1DE814F904C8F281E00F900F90CF91EC
:100AC000DF911F910F91FF90EF90DF90CF90BF903B
:100AD000AF909F908F907F906F905F904F90089510
:100AE000CF93DF93EC014C816D819E8180E02F815B
:100AF000FC01E20FF11D9F01309721F0FFEF203044
:100B00003F07F1F4E881F98170E06F5F7F4F942F28
:100B100080E0680F791F40E020503F4F09F441E02A
:100B20000084F185E02DCE010995882389F083307A
:100B300029F4CE0162E0D1DC80E00DC0843019F4EC
:100B4000CE0163E0F8CF853019F4CE0164E0F3CF35
:100B500086E08AA381E0DF91CF910895CF93DF9360
:100B6000EC01E881F9816D8170E06F5F7F4F9C81BE
:100B700080E0680F791F5E8140E08F81480F511D32
:100B80000284F385E02DCE010995882389F0833016
:100B900019F4CE0162E004C0843029F4CE0163E090
:100BA0009CDC80E008C0853019F4CE0164E0F8CF09
:100BB00086E08AA381E0DF91CF910895AF92BF9242
:100BC000CF92DF92EF92FF920F931F93DF93CF9319
:100BD0000F92CDB7DEB75C01FC015481458196814F
:100BE00080E027816C01C20ED11CC601019780975D
:100BF000D8F49601295F3F4F93E0369527959A9553
:100C0000E1F7F501808590E02817390769F4E42EB3
:100C1000FF240894E11CF11C952F80E0E80EF91EDA
:100C2000198200E010E02DC0C50163E035C0F50178
:100C3000A081B181F80183E0F695E7958A95E1F707
:100C4000EA0DFB1D418550E0C8018770907002C01D
:100C5000559547958A95E2F7417050701896ED9139
:100C6000FC911997C5010995882349F0833019F43F
:100C7000C50162E011C0853011F4F5E0F9830F5F22
:100C80001F4FB8016E0D7F1D0C151D0580F2898167
:100C9000853029F4C50164E020DC80E004C086E0F2
:100CA000F50182A381E00F90CF91DF911F910F9109
:100CB000FF90EF90DF90CF90BF90AF9008956F922C
:100CC0007F928F929F92AF92BF92CF92DF92EF92DC
:100CD000FF920F931F93DF93CF930F92CDB7DEB7A1
:100CE0003C01DC0114965C91149715964C91159774
:100CF00016969C91169780E017962C914C01820EC7
:100D0000911CC40101970897B8F49401220F331F76
:100D1000F301808590E02817390771F4A42EBB24D5
:100D20000894A11CB11C952F80E0A80EB91E630188
:100D30001982EE24FF2427C0C30163E02FC0D30132
:100D4000ED91FC91D60119961C91199700E01A9625
:100D50008C91A801480F511D0284F385E02DC30139
:100D60000995882349F0833019F4C30162E016C065
:100D7000853011F4B5E0B9830894E11CF11CE2E080
:100D8000F0E0CE0EDF1EB7016A0D7B1DE814F904FA
:100D9000B0F2F981F53029F4C30164E09EDB80E014
:100DA00005C086E0D30192968C9381E00F90CF919D
:100DB000DF911F910F91FF90EF90DF90CF90BF9048
:100DC000AF909F908F907F906F9008950F931F9397
:100DD000DF93CF930F92CDB7DEB78C018EE189837D
:100DE000D801ED91FC91B8016B5F7F4F0484F585CC
:100DF000E02DC801AE014F5F5F4F0995843029F4A3
:100E0000C80164E06ADB80E006C08981F801848360
:100E10008D5F82A381E00F90CF91DF911F910F91A1
:100E200008951F93CF93DF93EC0182DB882311F0A9
:100E300010E042C08B81853039F1863060F4823019
:100E4000C9F0833018F4813071F511C08330B1F0EE
:100E5000843049F516C08F30E9F0803118F48630BF
:100E600011F515C08031C9F08131E9F419C0CE0106
:100E7000E3DB02C0CE017ADC182F19C0CE0110DDF1
:100E8000FBCFCE019DDDF8CFCE012ADEF5CFCE011E
:100E900065DEF2CFCE0192DEEFCFCE0110DFECCFD8
:100EA000CE0194DFE9CFCE0161E017DB10E0CE0187
:100EB000FCDACE0165E02EDB812FDF91CF911F910F
:100EC0000895FA01CB0101978C52914010F083E014
:100ED00008956536710518F481E0808308C0693C87
:100EE000710510F4108203C06D52714010F080E063
:100EF000089581E0808380E00895FA01CB01019795
:100F00008C52914010F083E008956536710518F415
:100F100081E0808308C0693C710510F4108203C031
:100F20006D52714010F080E0089581E0808380E090
:100F30000895FA01CB0101978C52914010F083E0A3
:100F400008956536710518F4718360830CC0693C9F
:100F5000710528F48FEF9FEF9183808304C081E0B7
:100F60006D32780710F080E008957183608380E02F
:100F70000895FA01CB0101978C52914010F083E063
:100F800008956536710518F4718360830CC0693C5F
:100F9000710528F48FEF9FEF9183808304C081E077
:100FA0006D32780710F080E008957183608380E0EF
:100FB0000895CB0101978C52914010F083E0089581
:100FC0006536710568F0693C710518F4442341F4F5
:100FD00005C06D52714020F4442311F085E008955E
:100FE00080E00895CB0101978C52914010F083E08E
:100FF00008956536710578F0693C710520F4453631
:10100000510548F006C06D52714028F4485E5340C7
:1010100010F485E0089580E00895CF93DF93DB011D
:10102000EB0120E030E0FA018081281710F085E024
:1010300013C0F901E458FD4FE491E993822F8F5FCB
:101040002F5F3F4F2830310571F7A80FB11D1C925B
:101050008F5FFA01808380E0DF91CF910895FA01DC
:10106000615070406230710510F083E008958FEF99
:101070009FEF9183808380E00895FA016150704072
:101080006230710510F083E008958FEF9FEF918338
:10109000808380E00895615070406230710510F4E3
:1010A00080E0089583E00895FB01DA018C91E80F58
:1010B000F11D10828F5F8C9380E008951F920F9234
:1010C0000FB60F9211242F938F939F938091C0009E
:1010D0002091C6008C7121F08FEF8093650331C0A1
:1010E00080916503281711F581E0809361038FEFEC
:1010F0008093650310926403822F90E027FF09C05C
:1011000026FF1FC0822F8F738430D8F4809363032F
:1011100018C0689415F8969587951694E1F7817034
:10112000809368032F73209362030BC020936503A1
:10113000809164038A3028F4809164038F5F8093E8
:1011400064039F918F912F910F900FBE0F901F906E
:10115000189581E0809325011092240185E0809309
:101160002602109227021092290210922A0210924F
:101170002B02109228021092340380E180933503F1
:10118000109236038AEA8093370380933803809362
:101190004C0380934D031092560310925703109204
:1011A00058031092590310925A0380E580935B0311
:1011B000ECE2F2E08FEF108281831282838314824B
:1011C000858316828783389693E0E433F90799F78D
:1011D00040E050E061E070E0842F9A0127703070A9
:1011E000FB0102C0EE0FFF1F2A95E2F79F014F5F40
:1011F0005F4F86958695869590E0880F991FFA0136
:1012000033E0EE0FFF1F3A95E1F7EC5DFE4FE80F7C
:10121000F91FE85FFE4F219320952083403251054E
:10122000D9F610922601E7E2F1E08FEF819392E088
:10123000E632F907D9F720E030E041E050E0FA016A
:10124000022E02C0EE0FFF1F0A94E2F7EC5DFE4F84
:10125000822F8F5F82832F5F3F4F2830310579F7D0
:1012600081E08093680380936903109265038AE0AC
:1012700080936403109261031092620310926303DF
:101280008AE693E077D886E191E090936B038093B0
:101290006A0308951F920F920FB60F9211242F9395
:1012A0003F934F935F936F937F938F939F93AF93EE
:1012B000BF93EF93FF93E9ECF0E080818F7B808315
:1012C0008081806880838AE693E061E023D9FF9182
:1012D000EF91BF91AF919F918F917F916F915F91AE
:1012E0004F913F912F910F900FBE0F901F90189527
:1012F0001F920F920FB60F9211242F933F934F938B
:101300005F936F937F938F939F93AF93BF93EF936D
:10131000FF9380918A03853061F490918D038091D1
:101320008C03981730F48AE693E033D88093CE008C
:1013300005C08091C9008F7D8093C900FF91EF9116
:10134000BF91AF919F918F917F916F915F914F91DD
:101350003F912F910F900FBE0F901F9018951F92E5
:101360000F920FB60F9211242F933F934F935F93D9
:101370006F937F938F939F93AF93BF93EF93FF935D
:10138000129A8091C8006091CE008C7129F08AE693
:1013900093E061E0BFD803C08AE693E02AD91298AF
:1013A000FF91EF91BF91AF919F918F917F916F913D
:1013B0005F914F913F912F910F900FBE0F901F9013
:1013C00018951F920F920FB60F9211242F933F93EF
:1013D0004F935F936F937F938F939F93AF93BF933D
:1013E000EF93FF93139A8AE693E0D8D81398FF916E
:1013F000EF91BF91AF919F918F917F916F915F918D
:101400004F913F912F910F900FBE0F901F90189505
:101410005C988AE693E040E052EC61E070E026E9F7
:101420000E94E5018AE693E061E00ED8789480910D
:101430008A038330E9F48AE693E0F3DC80918A033F
:101440008530B1F490918D0380918C03981780F4CE
:101450008091C9008F778093C9008091C900806610
:101460008093C9008AE693E00E94C9018093CE0070
:10147000019AA895DCCF629FD001739FF001829FF3
:10148000E00DF11D649FE00DF11D929FF00D839F13
:10149000F00D749FF00D659FF00D9927729FB00DB0
:1014A000E11DF91F639FB00DE11DF91FBD01CF01C3
:1014B00011240895A1E21A2EAA1BBB1BFD010DC029
:1014C000AA1FBB1FEE1FFF1FA217B307E407F507F4
:1014D00020F0A21BB30BE40BF50B661F771F881FD0
:1014E000991F1A9469F760957095809590959B0166
:1014F000AC01BD01CF010895EE0FFF1F0590F491DF
:08150000E02D0994F894FFCFDF
:101508000000000061077D079907B907D907F207AE
:101518000D080000000061077D072F083D08D90766
:041528004B08540810
:00000001FF
