:100000000C943F000C94AB000C94AB000C94AB0030
:100010000C94AB000C94AB000C94AB000C94AB00B4
:100020000C94AB000C94AB000C94AB000C94AB00A4
:100030000C94AB000C946A010C94AB000C94AB00D4
:100040000C94AB000C94AB000C94AB000C94AB0084
:100050000C949B010C94AB000C94AB000C94AB0083
:100060000C94AB000C94AB000C94AB000C94AB0064
:100070000C94E6010C94A6020C94AB00030311242B
:100080001FBECFEFD4E0DEBFCDBF48E088E190E0F7
:100090000FB6F894A895809360000FBE409360005F
:1000A0008FE081B912B884E087B918B888E18AB9BD
:1000B000519A1BB880E490E09093C5008093C400EF
:1000C00022E02093C000E1ECF0E080E8808336E09D
:1000D0003093C20080818861808384E090E09093B7
:1000E000CD008093CC002093C800E9ECF0E080EADA
:1000F00080833093CA008081886180831092800061
:10010000E1E8F0E0408310928200109285001092A6
:10011000840083EC99E09093890080938800209379
:100120006F0080818260808313E0A0E0B1E001C0B5
:100130001D92A534B107E1F710E0CEE7D0E004C08E
:100140002297FE010E949B03CC37D107C9F70E947A
:10015000AD000C949F030C9400005C98789440913F
:10016000430374E061E055E080913C03882309F487
:100170008CC080913C0310923C03882309F485C015
:10018000139A80913E038823C1F090913E03109210
:100190003E03992391F0892F8150833070F4809130
:1001A0000101981751F090930101109200015093B2
:1001B00002021092030210920F0380913D038823E4
:1001C00091F090913D0310923D03992361F080914D
:1001D0000101823041F480910F03882321F4913290
:1001E00010F490930F0386B190E023E096958795E5
:1001F0002A95E1F7382F317080910202843610F091
:100200001092030280910101833011F020E002C0BE
:100210002091030280910101823061F0833020F44B
:10022000813071F491E00DC080910202843640F07B
:1002300093E007C080910202843610F092E001C082
:1002400090E0222311F4992341F4332311F480E048
:1002500001C080E4922F9F7305C0332311F480E81E
:1002600001C080EC982B8091C00085FFFCCF90935B
:10027000C6008091C00085FFFCCF9093C600442348
:1002800011F078B901C04298139880913F038A30E9
:1002900070F080910101813051F060930101109262
:1002A0000001509302021092030210920F038091FA
:1002B0000101823029F0833018F4813019F406C02E
:1002C000809102025C9A019AA8954ECF129A5C988E
:1002D0001298F9CF1F920F920FB60F9211248F939D
:1002E00080910202882329F080910202815080933C
:1002F000020280910001882369F480910202843C0B
:1003000028F4809102028B5F809302021092050212
:10031000109204021092000180913F038A3028F469
:1003200080913F038F5F80933F038F910F900FBEAB
:100330000F901F9018951F920F920FB60F921124D5
:100340002F938F939F938091C0002091C600887156
:1003500021F08FEF8093400331C080914003281734
:1003600011F581E080933C038FEF8093400310925E
:100370003F03822F90E027FF09C026FF1FC0822F76
:100380008F738430D8F480933E0318C0689415F8B6
:10039000969587951694E1F78170809343032F73A8
:1003A00020933D030BC02093400380913F038A308C
:1003B00028F480913F038F5F80933F039F918F913B
:1003C0002F910F900FBE0F901F9018951F920F92B4
:1003D0000FB60F9211242F933F934F935F938F93F8
:1003E0009F93AF93BF93EF93FF938091C800509179
:1003F000CE00887109F085C040910602842F90E0FC
:10040000FC01E050FF4FDF01AE5EBD4F5C93442323
:1004100029F45A3A09F078C081E074C0413059F4A7
:100420005A3A31F482E080930602409300016CC096
:100430001092060269C04A3098F440FF0DC0EF5E8A
:10044000FD4F808190E0252F30E0822793278F3F5A
:10045000910509F056C05C934F5F4093060254C06B
:100460004F3030F4552309F04CC0842F8F5F4AC0C1
:100470004F3009F049C0503509F043C010920602D0
:10048000A4E1B3E020E090E0EC91F0E0E050FF4F19
:100490008281893070F4882321F0222351F4292F9E
:1004A000280F1296983111F0985FEECF213278F034
:1004B00001C02FEF80910202843C28F48091020257
:1004C0008B5F8093020210920502109204028091C9
:1004D00002028823C9F480910402821761F480919A
:1004E0000502833088F48F5F80930502833061F4C6
:1004F0002093030209C02093040281E08093050247
:1005000003C080E18093060280910602803178F07A
:100510001092060280910202843C28F4809102022B
:100520008B5F809302021092050210920402FF91E9
:10053000EF91BF91AF919F918F915F914F913F91BB
:100540002F910F900FBE0F901F9018951F920F9232
:100550000FB60F9211242F938F939F93AF93BF9356
:10056000EF93FF93809110038031A8F180911103E4
:10057000882351F590910F03992381F010920F0376
:10058000913208F090E080910101823019F021E071
:1005900090E005C0992311F02AE001C021E0A92FC5
:1005A000B0E083E0AA0FBB1F8A95E1F7A95FBD4FBA
:1005B000E9E2F3E08D91819383E0E133F807D1F72D
:1005C000B2971082209311031092100380911103AF
:1005D00081508093110380911003E82FF0E0E95DD2
:1005E000FC4F90818F5F809310039093CE00FF911A
:1005F000EF91BF91AF919F918F912F910F900FBE6F
:100600000F901F90189581E08093010110920001D6
:1006100085E080930202109203021092050210926C
:1006200006021092040210920F0380E180931003DF
:10063000109211038AEA809312038093130380932C
:1006400027038093280310923103109232031092F3
:100650003303109234031092350380E58093360300
:10066000E7E0F2E08FEF10828183128283831482AD
:10067000858316828783389693E0EF30F90799F7E0
:1006800040E050E061E070E0842F9A012770307004
:10069000FB0102C0EE0FFF1F2A95E2F79F014F5F9B
:1006A0005F4F86958695869590E0880F991FFA0191
:1006B00033E0EE0FFF1F3A95E1F7E050FF4FE80FF0
:1006C000F91FE95FFE4F21932095208340325105A9
:1006D000D9F610920201E3E0F1E08FEF819392E00E
:1006E000E230F907D9F720E030E041E050E0FA01CC
:1006F000022E02C0EE0FFF1F0A94E2F7E050FF4FF8
:10070000822F8F5F82832F5F3F4F2830310579F72B
:1007100081E08093430380934403109240038AE076
:1007200080933F0310923C0310923D0310923E03CE
:100730000895EE0FFF1F0590F491E02D0994F894B1
:02074000FFCFE9
:00000001FF
