:1000000041C10000B5C10000B3C10000B1C1000092
:10001000AFC10000ADC10000ABC10000A9C100002C
:10002000A7C10000A5C10000A3C10000A1C100003C
:100030009FC100000C941F0B9BC1000099C10000E0
:1000400097C1000095C1000093C1000091C100005C
:100050000C94F00A0C94B20A0C94850A89C1000031
:1000600087C1000085C1000083C1000081C100007C
:100070000C94550A0C941D0A0C94EF0900C18140A0
:1000800001C0804101C0804100C1814001C0804168
:1000900000C1814000C1814001C0804101C0804158
:1000A00000C1814000C1814001C0804100C1814048
:1000B00001C0804101C0804100C1814001C0804138
:1000C00000C1814000C1814001C0804100C1814028
:1000D00001C0804101C0804100C1814000C1814018
:1000E00001C0804101C0804100C1814001C0804108
:1000F00000C1814000C1814001C0804101C08041F8
:1001000000C1814000C1814001C0804100C18140E7
:1001100001C0804101C0804100C1814000C18140D7
:1001200001C0804101C0804100C1814001C08041C7
:1001300000C1814000C1814001C0804100C18140B7
:1001400001C0804101C0804100C1814001C08041A7
:1001500000C1814000C1814001C0804101C0804197
:1001600000C1814000C1814001C0804100C1814087
:1001700001C0804101C0804100C1814000C0C10177
:10018000C30302C2C60607C705C5C404CC0C0DCD07
:100190000FCFCE0E0ACACB0BC90908C8D81819D977
:1001A0001BDBDA1A1EDEDF1FDD1D1CDC14D4D515A7
:1001B000D71716D6D21213D311D1D010F03031F197
:1001C00033F3F23236F6F737F53534F43CFCFD3DC7
:1001D000FF3F3EFEFA3A3BFB39F9F83828E8E929B7
:1001E000EB2B2AEAEE2E2FEF2DEDEC2CE42425E567
:1001F00027E7E62622E2E323E12120E0A06061A1D7
:1002000063A3A26266A6A767A56564A46CACAD6D86
:10021000AF6F6EAEAA6A6BAB69A9A86878B8B979F6
:10022000BB7B7ABABE7E7FBF7DBDBC7CB47475B526
:1002300077B7B67672B2B373B17170B05090915116
:100240009353529296565797559594549C5C5D9D46
:100250005F9F9E5E5A9A9B5B995958988848498936
:100260004B8B8A4A4E8E8F4F8D4D4C8C44848545E6
:1002700087474686824243834181804041424148CC
:100280005400DA0911241FBECFEFD4E0DEBFCDBF8A
:1002900058E088E190E00FB6F894A895809360004C
:1002A0000FBE509360008FE081B912B884E087B927
:1002B00018B888E18AB9519A1BB880E490E090930D
:1002C000C5008093C40022E02093C000E1ECF0E080
:1002D00040E8408336E03093C200808188618083AB
:1002E00085E190E09093CD008093CC002093C800EE
:1002F000E9ECF0E040833093CA008081886180831C
:1003000010928000E1E8F0E0508310928200109299
:1003100085001092840086E791E090938900809395
:10032000880020936F0080818260808311E0A0E0CC
:10033000B1E0E8E8F8E102C005900D92A432B107FF
:10034000D9F711E0A4E2B1E001C01D92AB36B107CC
:10035000E1F712E0C4E8D2E004C02297FE010E9457
:100360003E0CC238D107C9F70E94570B0C94420CBF
:1003700047CEFC0184E091E09183808310A28FEF4F
:1003800081A312A213A215A214A217A216A2089565
:10039000DC0190968C919097843099F493969C917F
:1003A000939792968C919297981758F493968C9174
:1003B0009397FD01E80FF11D92818F5F93968C93C7
:1003C00001C090E0892F0895EF92FF920F931F9341
:1003D000CF93DF93EC017A018B01622F70E080E014
:1003E00090E021E0E2162BE4F20620E0020720E094
:1003F000120758F028E93AE340E050E00E94FB0B76
:100400002EEE32E040E050E012C0A80197010E94B9
:10041000FB0B2CE434E040E050E00E941A0CCA01CF
:10042000B90128E93AE340E050E00E94FB0B0E944A
:100430001A0C2EA33FA3C901DF91CF911F910F91F9
:10044000FF90EF900895FC01862F8150873F10F0B8
:1004500080E0089561A381E00895CF93DF93582F42
:10046000282F392FD9013FEF2FEF12C012968C9110
:1004700012972827C22FD0E0CE0184589F4FFC014D
:1004800024912327C458DE4FFE0184911196382F02
:100490008A2F851B861750F3932F80E030E0282B9E
:1004A000392BC901DF91CF9108950F931F938C01D0
:1004B000FC0162A1D2DFF80122A1E20FF11D8283CB
:1004C0002F5FF80122A382A1E80FF11D92838F5FB5
:1004D000F80182A31F910F910895DC0181E09296AB
:1004E0008C93929792969C919297FD01E90FF11D42
:1004F0008281806882839F5F92969C939297929666
:100500008C919297FD01E80FF11D62838F5F9296A7
:100510008C930895FC01653050F4613021F412A2EF
:1005200015A214A203C0643009F413A260A30895B5
:100530000F931F93CF93DF93EC019A819F3F09F1B3
:1005400089A18917F1F48AA1843018F40FEF1FEF05
:1005500006C08AA1FE01E80FF11D008111816AA188
:100560006250CE017ADF0817190711F480E004C049
:10057000CE0161E0CFDF82E0DF91CF911F910F913B
:100580000895CE0161E0C6DF81E0F6CF0F931F939F
:10059000CF93DF93EC010CA11DA128A1213011F014
:1005A0002230D1F488E8083B180780F48EA19FA17F
:1005B000080F191F88E8083B180740F0213049F45C
:1005C0008AA1843030F0CE0163E0A4DF1DA30CA328
:1005D00003C0CE0161E0F9CFDF91CF911F910F9160
:1005E00008951F93CF93DF93EC011AA188A1813066
:1005F00081F4112349F08CA19DA188599A4388F078
:10060000CE0162E087DF05C0FE01E10FF11D6283CC
:100610001F5F1DA21CA21AA38AA1DF91CF911F9177
:1006200008951E31B0F7F0CF6F927F928F929F9214
:10063000AF92BF92CF92DF92EF92FF920F931F93F0
:10064000DF93CF930F92CDB7DEB78C01DC01149608
:100650004C91149715963C91159716969C91169768
:1006600080E017962C915C01A20EB11CC501019788
:10067000809718F0C80163E006C0F80182A18830B5
:1006800029F0C80164E029DF80E05DC0C50107965C
:1006900023E0969587952A95E1F7D80114968C93D7
:1006A00023E005C0F801E20FF11D12822F5F922FA7
:1006B0009350F80184819817A8F3C32EDD24089481
:1006C000C11CD11C942F80E0C80ED91E22A3EE2499
:1006D000FF243E010894611C711C91E0892E912C2D
:1006E0002BC01982D801ED91FC910190F081E02D91
:1006F000C801A3010995833019F4C80162E0C3CF92
:1007000089818823B1F0F70183E0F695E7958A9512
:10071000E1F73396E00FF11FC701877090709401E5
:1007200002C0220F331F8A95E2F7C9012281282BCC
:1007300022830894E11CF11CB7016C0D7D1DEA14A5
:10074000FB0478F281E00F90CF91DF911F910F9120
:10075000FF90EF90DF90CF90BF90AF909F908F90E1
:100760007F906F9008956F927F928F929F92AF9239
:10077000BF92CF92DF92EF92FF920F931F93DF937E
:10078000CF930F92CDB7DEB78C01DC0114964C915C
:10079000149715963C91159716969C91169780E0A4
:1007A00017962C915C01A20EB11CC5010197809790
:1007B00018F0C80163E006C0F80182A1883029F072
:1007C000C80164E08ADE80E05DC0C501079653E0A1
:1007D000969587955A95E1F7D80114968C9323E066
:1007E00005C0F801E20FF11D12822F5F922F935086
:1007F000F80184819817A8F3C32EDD240894C11C46
:10080000D11C942F80E0C80ED91E22A3EE24FF2411
:100810003E010894611C711C41E0842E912C2BC078
:100820001982D801ED91FC910280F381E02DC8017D
:10083000A3010995833019F4C80162E0C3CF89810F
:100840008823B1F0F70133E0F695E7953A95E1F7A3
:100850003396E00FF11FC70187709070940102C0BA
:10086000220F331F8A95E2F7C9012281282B2283A8
:100870000894E11CF11CB7016C0D7D1DEA14FB040A
:1008800078F281E00F90CF91DF911F910F91FF904F
:10089000EF90DF90CF90BF90AF909F908F907F9020
:1008A0006F9008954F925F926F927F928F929F9276
:1008B000AF92BF92CF92DF92EF92FF920F931F936E
:1008C000DF93CF9300D0CDB7DEB78C01DC01149657
:1008D0004C91149715963C91159716969C911697E6
:1008E00080E017962C914C01820E911CC401019757
:1008F000049718F0C80163E006C0F80182A18830AF
:1009000029F0C80164E0E9DD80E04EC0C401880F31
:10091000991FD80114968C9323E005C0F801E20FCB
:10092000F11D12822F5F922F9350F8018481981746
:10093000A8F3A32EBB240894A11CB11C942F80E023
:10094000A80EB91E22A36801EE24FF2444244A9471
:10095000542C3E010894611C711C1FC05A824982AC
:10096000D801ED91FC910480F581E02DC801A3012F
:100970000995E2E0F0E0CE0EDF1E833019F4C801E5
:1009800062E0C1CF99818A81D60113968C93139727
:1009900014969C930894E11CF11CB7016A0D7B1D11
:1009A000E814F904D8F281E00F900F90CF91DF9115
:1009B0001F910F91FF90EF90DF90CF90BF90AF907D
:1009C0009F908F907F906F905F904F9008954F927F
:1009D0005F926F927F928F929F92AF92BF92CF92CF
:1009E000DF92EF92FF920F931F93DF93CF9300D08C
:1009F000CDB7DEB78C01DC0114964C911497159697
:100A00003C91159716969C91169780E017962C911D
:100A10004C01820E911CC4010197049718F0C80183
:100A200063E006C0F80182A1883029F0C80164E0C3
:100A300054DD80E04EC0C401880F991FD801149680
:100A40008C9323E005C0F801E20FF11D12822F5FA5
:100A5000922F9350F80184819817A8F3A32EBB24FA
:100A60000894A11CB11C942F80E0A80EB91E22A3EB
:100A70006801EE24FF2444244A94542C3E01089437
:100A8000611C711C1FC05A824982D801ED91FC91F2
:100A90000680F781E02DC801A3010995E2E0F0E0AE
:100AA000CE0EDF1E833019F4C80162E0C1CF9981F8
:100AB0008A81D60113968C93139714969C9308946D
:100AC000E11CF11CB7016A0D7B1DE814F904D8F292
:100AD00081E00F900F90CF91DF911F910F91FF90C8
:100AE000EF90DF90CF90BF90AF909F908F907F90CE
:100AF0006F905F904F900895CF93DF93EC014C81FE
:100B00006D819E8180E02F81FC01E20FF11D9F012C
:100B1000309721F0FFEF20303F0721F58AA1883080
:100B200029F0CE0164E0D9DC80E024C0E881F981BD
:100B300070E06F5F7F4F942F80E0680F791F40E077
:100B400020503F4F09F441E00084F185E02DCE01B3
:100B50000995882361F0833019F4CE0162E0E3CF78
:100B6000843019F4CE0163E0DECF8530D1F286E027
:100B70008AA381E0DF91CF910895CF93DF93EC01B9
:100B80002C816D813E81AF818AA1883011F5E88189
:100B9000F98170E06F5F7F4F922F80E0680F791FBF
:100BA000532F40E04A0F511D0284F385E02DCE0102
:100BB0000995882389F0833029F4CE0162E08DDC29
:100BC00080E00DC0843019F4CE0163E0F8CF8530A9
:100BD00019F4CE0164E0F3CF86E08AA381E0DF91CF
:100BE000CF910895AF92BF92CF92DF92EF92FF9292
:100BF0000F931F93DF93CF930F92CDB7DEB75C01B6
:100C0000FC0154814581968180E027817C01E20EC0
:100C1000F11CC70101978097A0F4F501808527E0BA
:100C200030E0E20EF31E970193E0369527959A95F2
:100C3000E1F769EF7FEFE60EF71E90E0281739071E
:100C400019F0C50163E04BC0F50182A1275F3F4F5A
:100C500090E02817390709F040C0C42EDD2408941D
:100C6000C11CD11C952F80E0C80ED91E198200E04E
:100C700010E02AC0F501A081B181F80183E0F6956A
:100C8000E7958A95E1F7EA0DFB1D418550E0C80123
:100C90008770907002C0559547958A95E2F741702C
:100CA00050701896ED91FC911997C501099588230C
:100CB00049F0833019F4C50162E011C0853011F4A8
:100CC000F5E0F9830F5F1F4FB8016C0D7D1D0E1508
:100CD0001F0580F22981253029F4C50164E0FDDB80
:100CE00080E004C086E0F50182A381E00F90CF91FF
:100CF000DF911F910F91FF90EF90DF90CF90BF9009
:100D0000AF9008956F927F928F929F92AF92BF9211
:100D1000CF92DF92EF92FF920F931F93DF93CF93C7
:100D20000F92CDB7DEB73C01DC0114965C911497AD
:100D300015964C91159716969C91169780E01796EC
:100D40002C914C01820E911CC4010197049748F428
:100D5000F30180859401220F331F90E02817390793
:100D600019F0C30163E046C0D30192968C91275FCE
:100D70003F4F90E028173907D9F5A42EBB240894DB
:100D8000A11CB11C952F80E0A80EB91E6301198229
:100D9000EE24FF2424C0D301ED91FC91D6011996D5
:100DA0001C91199700E01A968C91A801480F511DCB
:100DB0000284F385E02DC3010995882349F083302F
:100DC00019F4C30162E016C0853011F4B5E0B983AF
:100DD0000894E11CF11CE2E0F0E0CE0EDF1EB7014A
:100DE0006A0D7B1DE814F904B0F2F981F53029F49D
:100DF000C30164E072DB80E005C086E0D301929617
:100E00008C9381E00F90CF91DF911F910F91FF9014
:100E1000EF90DF90CF90BF90AF909F908F907F909A
:100E20006F9008950F931F93DF93CF930F92CDB7D9
:100E3000DEB78C018EE18983D801ED91FC91B80178
:100E40006B5F7F4F0484F585E02DC801AE014F5FD5
:100E50005F4F0995843029F4C80164E03EDB80E0EF
:100E600006C08981F80184838D5F82A381E00F90A1
:100E7000CF91DF911F910F9108951F93CF93DF932F
:100E8000EC0156DB882311F010E042C08B818530E5
:100E900039F1863060F48230C9F0833018F4813043
:100EA00071F511C08330B1F0843049F516C08F3030
:100EB000E9F0803118F4863011F515C08031C9F0A1
:100EC0008131E9F419C0CE01AFDB02C0CE014BDCA9
:100ED000182F19C0CE01E6DCFBCFCE0178DDF8CFAC
:100EE000CE010ADEF5CFCE0148DEF2CFCE017ADEAA
:100EF000EFCFCE0107DFECCFCE0194DFE9CFCE01FB
:100F000061E0EBDA10E0CE01D0DACE0164E002DB82
:100F1000812FDF91CF911F91089583E0089583E0A1
:100F2000089583E0089583E0089583E0089583E0C1
:100F3000089585E00895FC0111A610A613A612A637
:100F400015A614A617A616A60895623018F060E03C
:100F500070E009C0E62FF0E07496EE0FFF1FE80F77
:100F6000F91F60817181CB010895623048F4E62F4A
:100F7000F0E07696EE0FFF1FE80FF91F51834083D4
:100F80000895DC01FA01CB010197049710F083E08A
:100F9000089511821082623091F0633018F461304C
:100FA00061F405C0633019F0643039F408C09896D4
:100FB0008D919C9199979183808380E008959A9672
:100FC0008D919C919B979183808380E00895DC01B3
:100FD000FA01CB010197029710F083E00895118286
:100FE0001082613019F0623039F408C09C968D91FE
:100FF0009C919D979183808380E008959E968D912A
:101000009C919F979183808380E00895FC01CB01A0
:101010000197049710F083E00895623079F063300F
:1010200018F46130D1F405C0633079F06430A9F46C
:1010300016C080A591A5842B952B0DC082A593A5E4
:10104000842B952B93A782A708C04095509580A527
:1010500091A58423952391A780A780E008954095CA
:10106000509582A593A58423952393A782A780E01A
:1010700008950F931F93CF93DF938C01DB01EB0156
:1010800020E030E0922FFA018081281710F085E0EF
:1010900019C0F901E458FD4FE491E9939F5F2F5F78
:1010A0003F4F2630310571F7F80180A1882311F4F4
:1010B0008FEF01C080E0A90FB11D8C939F5FFA01F3
:1010C000908380E0DF91CF911F910F910895FC01F3
:1010D000108611861386148612861182108213825E
:1010E000128215821482178216820895FC0182856D
:1010F000833011F091E015C08585823169F48685D1
:10110000843051F48785908995838483818992897D
:101110009783868390E001C091E01086118681E07C
:10112000828781E089270895FC018285813011F052
:1011300091E00EC081E1858724E02687808191813E
:10114000908B878782819381928B818B218790E01E
:1011500081E089270895DC011A968C911A978330D3
:1011600029F51E968C911E97FD01E80FF11D5785FC
:101170008B5F42E090E0282F30E02150304005C0E6
:10118000EA0FFB1F8385980F4F5FE42FF0E0E21713
:10119000F307B4F3591751F018961C921897199643
:1011A0001C92199781E01A968C931A971A968C9133
:1011B00090E0833009F491E0892F0895DC011896BE
:1011C0005C9118971A968C911A97813009F443C054
:1011D0001A968C911A97823009F043C03CC0442380
:1011E00021F482E01A968C931A9765E550E01A96DE
:1011F0008C911A97823061F5FD01E50FF11D63872F
:10120000513069F0513028F0852F8F5F543088F4C9
:101210000EC0653511F451E01BC081E016C06A3A7A
:1012200011F452E015C01A965C931A9711C0582F0A
:101230000FC0582F1E968C911E9790E00496252F74
:1012400030E08217930724F483E01A968C931A9760
:1012500018965C9308951A968C911A97813039F6F6
:10126000BECF0895623018F060E070E009C0E62F4C
:10127000F0E03296EE0FFF1FE80FF91F60817181D9
:10128000CB010895623040F4E62FF0E0EE0FFF1F2F
:10129000E80FF91F518340830895CF93DF93DC015A
:1012A000EB011A968C911A978430D1F419968C918F
:1012B0001997882389F0815019968C93199718965D
:1012C0008C911897FD01E80FF11D938598838F5F2E
:1012D00018968C93189704C081E01A968C931A97ED
:1012E0001A968C9190E0843009F491E0892FDF9177
:1012F000CF910895FC01118210821382128215820F
:101300001482178216821086118681E082870895E2
:10131000FC011086118681E082870895DC01199610
:101320005C9119975B5F19965C9319975B3010F588
:1013300085E51B968C931B978AEA1C968C931C97C9
:101340001E968C911E978B5F92E040E0282F30E034
:101350002150304005C0EA0FFB1F8385480F9F5F77
:10136000E92FF0E0E217F307B4F3FD01E50FF11DFB
:10137000428703C019961C92199719968C91811176
:1013800081E00895CF93DF93EC018A85813049F4A1
:101390008985882331F0CE01C1DF882311F084E0F4
:1013A0008A878A8590E0843009F491E0892FDF9163
:1013B000CF9108950F931F9304E211E0C8010E949A
:1013C000B90186E191E09093250180932401C80141
:1013D000B2DD84E591E07BDE1F910F9108951F92AD
:1013E0000F920FB60F9211242F933F934F935F9359
:1013F0006F937F938F939F93AF93BF93EF93FF93DD
:10140000E9ECF0E080818F7B80838081806880833D
:1014100084E291E061E07ED8FF91EF91BF91AF91BE
:101420009F918F917F916F915F914F913F912F91FC
:101430000F900FBE0F901F9018951F920F920FB62E
:101440000F9211242F933F934F935F936F937F934A
:101450008F939F93AF93BF93EF93FF93809144013A
:10146000843069F49091470180914601981738F4CF
:1014700084E291E00E94C8018093CE0005C0809173
:10148000C9008F7D8093C900FF91EF91BF91AF910B
:101490009F918F917F916F915F914F913F912F918C
:1014A0000F900FBE0F901F9018951F920F920FB6BE
:1014B0000F9211242F933F934F935F936F937F93DA
:1014C0008F939F93AF93BF93EF93FF938091C80047
:1014D0006091CE008C7129F084E291E061E01AD82D
:1014E00003C084E291E07DD8FF91EF91BF91AF916D
:1014F0009F918F917F916F915F914F913F912F912C
:101500000F900FBE0F901F9018951F920F920FB65D
:101510000F9211242F933F934F935F936F937F9379
:101520008F939F93AF93BF93EF93FF93E1ECF0E022
:1015300080818F7B808380818068808384E591E0D7
:10154000E7DEFF91EF91BF91AF919F918F917F91D6
:101550006F915F914F913F912F910F900FBE0F9020
:101560001F9018951F920F920FB60F9211242F9370
:101570003F934F935F936F937F938F939F93AF931B
:10158000BF93EF93FF93DF93CF930F92CDB7DEB767
:10159000198284E591E0BE016F5F7F4F7EDE882374
:1015A00031F089818093C6001092690105C0809155
:1015B000C1008F7D8093C1000F90CF91DF91FF918B
:1015C000EF91BF91AF919F918F917F916F915F91BB
:1015D0004F913F912F910F900FBE0F901F90189534
:1015E0001F920F920FB60F9211242F933F934F9398
:1015F0005F936F937F938F939F93AF93BF93EF937B
:10160000FF938091C0006091C60040E08C7109F0AA
:1016100041E084E591E0D2DD10926901FF91EF9104
:10162000BF91AF919F918F917F916F915F914F91FA
:101630003F912F910F900FBE0F901F9018951F9202
:101640000F920FB60F9211242F933F934F935F93F6
:101650006F937F938F939F93AF93BF93EF93FF937A
:1016600080916A018F5F80936A01873058F0809182
:1016700069018A3028F4809169018F5F8093690144
:1016800010926A0184E291E00E94C602FF91EF91FC
:10169000BF91AF919F918F917F916F915F914F918A
:1016A0003F912F910F900FBE0F901F9018950F92A2
:1016B000CDB7DEB75C9A84E291E040E052EC61E0A5
:1016C00070E026E90E94E40184E291E061E00E947A
:1016D000230284E291E061E00E948A0284E591E0C5
:1016E00009DE789493E0E92E8E010F5F1F4F82E0B0
:1016F000F82E809169018A3028F084E591E008DEB7
:101700001092690184E591E026DD8823C9F084E523
:1017100091E0ECDC84E591E060E0A4DDAC0184E2E2
:1017200091E060E022DC84E591E061E09BDDAC01CA
:1017300084E291E061E019DC81E080B9E092690126
:10174000809169018330F0F084E591E0EDDC88233D
:10175000C9F084E591E016DE8823A1F084E591E0EC
:10176000B8019BDD882371F0F0B88091C1008F77BC
:101770008093C10089818093C6008091C1008066FA
:101780008093C10080914401833099F5139A84E2DB
:1017900091E073DB882391F084E291E060E0D5DB97
:1017A000AC0184E591E060E06DDD84E291E061E010
:1017B000CCDBAC0184E591E061E064DD8091440123
:1017C0008430B1F49091470180914601981780F4DC
:1017D0008091C9008F778093C90084E291E00E94D4
:1017E000C8018093CE008091C90080668093C900B3
:1017F0001398A8957ECF629FD001739FF001829FBE
:10180000E00DF11D649FE00DF11D929FF00D839F8F
:10181000F00D749FF00D659FF00D9927729FB00D2C
:10182000E11DF91F639FB00DE11DF91FBD01CF013F
:1018300011240895A1E21A2EAA1BBB1BFD010DC0A5
:10184000AA1FBB1FEE1FFF1FA217B307E407F50770
:1018500020F0A21BB30BE40BF50B661F771F881F4C
:10186000991F1A9469F760957095809590959B01E2
:10187000AC01BD01CF010895EE0FFF1F0590F4915B
:08188000E02D0994F894FFCF5C
:10188800000000008D078F079107930795079707BA
:101898009907000000008D078F07C107E707950724
:0418A80006083908ED
:00000001FF
