:100000000C943F000C94A6000C94A6000C94A6003F
:100010000C94A6000C94A6000C94A6000C94A600C8
:100020000C94A6000C94A6000C94A6000C94A600B8
:100030000C94A6000C94A6000C94A6000C94A600A8
:100040000C94A6000C94A6000C94A6000C94A60098
:100050000C940F010C94A6000C94A6000C94A6001E
:100060000C94A6000C94A6000C94A6000C94A60078
:100070000C945A010C9416020C94A6006C021124E4
:100080001FBECFEFD4E0DEBFCDBF48E088E190E0F7
:100090000FB6F894A895809360000FBE409360005F
:1000A0008FE081B912B884E087B918B858E15AB91D
:1000B000519A1BB880E490E09093C5008093C400EF
:1000C000E1ECF0E0408326E02093C00032E0309382
:1000D000C20080818068808384E090E09093CD00AE
:1000E0008093CC002093C800E9ECF0E0508330937B
:1000F000CA0085E8808310928000E1E8F0E0408348
:1001000010928200109285001092840089E698E196
:10011000909389008093880080818460808313E0BD
:10012000A0E0B1E001C01D92A434B107E1F710E0F6
:10013000CEE7D0E004C02297FE010E940103CC3735
:10014000D107C9F70E94A8000C9405030C94000085
:100150005C9A789490913F032091010140910302B1
:10016000309102025091000180913C036091420362
:10017000882309F447C0992331F0213021F021E090
:1001800040E035E050E086B190E073E096958795C9
:100190007A95E1F78170213011F0233009F440E0C5
:1001A000223051F0233020F4213051F491E009C085
:1001B000343630F094E005C0343610F092E001C0DF
:1001C00090E0442311F4992341F4882311F490E042
:1001D00001C090E4842F8F7305C0882311F480E858
:1001E00001C080EC892B9091C0008093C600909153
:1001F000C00080958093C600662319F084E088B91A
:1002000001C04298B19BFECFA895311131505523C2
:1002100019F4343C08F43B5FB19A50E0F3CF1F92DD
:100220000F920FB60F9211242F933F934F935F932A
:100230008F939F938091C0005091C600887121F0E8
:100240008FEF80933D032BC040913D03242F30E07E
:10025000852F90E0822793278F3F9105F1F481E06D
:1002600080933C038FEF80933D0347FF09C046FF17
:1002700016C0842F8F73843090F480933F030FC097
:1002800086E0369527958A95E1F7822F81708093D5
:1002900042034F7340933E0302C050933D039F912E
:1002A0008F915F914F913F912F910F900FBE0F90C3
:1002B0001F9018951F920F920FB60F9211242F9333
:1002C0003F934F935F938F939F93AF93BF93EF931E
:1002D000FF938091C8005091CE00887109F083C0CF
:1002E00040910602842F90E0FC01E050FF4FDF01B7
:1002F000AE5EBD4F5C93442329F45A3A09F076C0B0
:1003000081E072C0413059F45A3A31F482E080936E
:100310000602409300016AC01092060267C04A308C
:1003200098F440FF0DC0EF5EFD4F808190E0252FD7
:1003300030E0822793278F3F910509F054C05C93EA
:100340004F5F4093060252C04F3030F4552309F0FE
:100350004AC0842F8F5F48C04F3009F047C05035E6
:1003600009F041C010920602A4E1B3E090E020E061
:10037000EC91F0E0E050FF4F8281893070F48823E7
:1003800021F0992351F4922F980F1296283111F0F1
:10039000285FEECF913268F001C09FEF809102029A
:1003A000843C18F48B5F8093020210920502109235
:1003B0000402809102028823C9F480910402891703
:1003C00061F480910502843088F48F5F8093050288
:1003D000833061F49093030209C09093040281E09A
:1003E0008093050203C080E180930602809106029B
:1003F000803168F01092060280910202843C18F469
:100400008B5F809302021092050210920402FF910A
:10041000EF91BF91AF919F918F915F914F913F91DC
:100420002F910F900FBE0F901F9018951F920F9253
:100430000FB60F9211248F939F93AF93BF93EF93B7
:10044000FF9380911003803180F180911103882304
:1004500029F580910101823051F480910F0381329E
:1004600030F4882311F491E004C09AE002C091E0D6
:1004700080E0A82FB0E0E3E0AA0FBB1FEA95E1F708
:10048000A95FBD4FE9E2F3E08D91819383E0E13311
:10049000F807D1F710920F039093110310921003F5
:1004A0008091110381508093110380911003E82FF4
:1004B000F0E0E95DFC4F90818F5F80931003909393
:1004C000CE00FF91EF91BF91AF919F918F910F90CF
:1004D0000FBE0F901F90189581E08093010110923C
:1004E000000185E08093020210920302109205023F
:1004F000109206021092040210920F0380E1809382
:100500001003109211038AEA80931203809313035D
:1005100080932703809328031092310310923203B3
:1005200010923303109234031092350380E58093C8
:100530003603E7E0F2E08FEF10828183128283833B
:100540001482858316828783389693E0EF30F9070B
:1005500099F740E050E061E070E0842F9A01277045
:100560003070FB0102C0EE0FFF1F2A95E2F79F01DA
:100570004F5F5F4F86958695869590E0880F991F0F
:10058000FA01A3E0EE0FFF1FAA95E1F7E050FF4F3D
:10059000E80FF91FE95FFE4F219320952083403239
:1005A0005105D9F610920201E3E0F1E08FEF81935B
:1005B00092E0E230F907D9F720E030E041E050E086
:1005C000FA01022E02C0EE0FFF1F0A94E2F7E0507C
:1005D000FF4F822F8F5F82832F5F3F4F283031057F
:1005E00079F781E0809342038093430310923D03A7
:1005F00010923C0310923E0310923F030895EE0FB9
:0E060000FF1F0590F491E02D0994F894FFCFB0
:00000001FF
