:1000000041C10000B5C10000B3C10000B1C1000092
:10001000AFC10000ADC10000ABC10000A9C100002C
:10002000A7C10000A5C10000A3C10000A1C100003C
:100030009FC100000C94D0099BC1000099C1000031
:1000400097C1000095C1000093C1000091C100005C
:100050000C944B088DC100008BC1000089C10000C9
:1000600087C1000085C1000083C1000081C100007C
:100070000C94A0090C9467090C94390900C18140C3
:1000800001C0804101C0804100C1814001C0804168
:1000900000C1814000C1814001C0804101C0804158
:1000A00000C1814000C1814001C0804100C1814048
:1000B00001C0804101C0804100C1814001C0804138
:1000C00000C1814000C1814001C0804100C1814028
:1000D00001C0804101C0804100C1814000C1814018
:1000E00001C0804101C0804100C1814001C0804108
:1000F00000C1814000C1814001C0804101C08041F8
:1001000000C1814000C1814001C0804100C18140E7
:1001100001C0804101C0804100C1814000C18140D7
:1001200001C0804101C0804100C1814001C08041C7
:1001300000C1814000C1814001C0804100C18140B7
:1001400001C0804101C0804100C1814001C08041A7
:1001500000C1814000C1814001C0804101C0804197
:1001600000C1814000C1814001C0804100C1814087
:1001700001C0804101C0804100C1814000C0C10177
:10018000C30302C2C60607C705C5C404CC0C0DCD07
:100190000FCFCE0E0ACACB0BC90908C8D81819D977
:1001A0001BDBDA1A1EDEDF1FDD1D1CDC14D4D515A7
:1001B000D71716D6D21213D311D1D010F03031F197
:1001C00033F3F23236F6F737F53534F43CFCFD3DC7
:1001D000FF3F3EFEFA3A3BFB39F9F83828E8E929B7
:1001E000EB2B2AEAEE2E2FEF2DEDEC2CE42425E567
:1001F00027E7E62622E2E323E12120E0A06061A1D7
:1002000063A3A26266A6A767A56564A46CACAD6D86
:10021000AF6F6EAEAA6A6BAB69A9A86878B8B979F6
:10022000BB7B7ABABE7E7FBF7DBDBC7CB47475B526
:1002300077B7B67672B2B373B17170B05090915116
:100240009353529296565797559594549C5C5D9D46
:100250005F9F9E5E5A9A9B5B995958988848498936
:100260004B8B8A4A4E8E8F4F8D4D4C8C44848545E6
:1002700087474686824243834181804041424148CC
:100280005400960811241FBECFEFD4E0DEBFCDBFCF
:1002900058E088E190E00FB6F894A895809360004C
:1002A0000FBE509360008FE081B912B884E087B927
:1002B00018B888E18AB9519A1BB880E490E090930D
:1002C000C5008093C40022E02093C000E1ECF0E080
:1002D00040E8408336E03093C200808188618083AB
:1002E00085E190E09093CD008093CC002093C800EE
:1002F000E9ECF0E040833093CA008081886180831C
:1003000010928000E1E8F0E0508310928200109299
:1003100085001092840086E791E090938900809395
:10032000880020936F0080818260808311E0A0E0CC
:10033000B1E0EEEEF4E102C005900D92A432B107F7
:10034000D9F713E0A4E2B1E001C01D92AA39B107C8
:10035000E1F712E0C4E8D2E004C02297FE010E9457
:10036000710AC238D107C9F70E94F5090C94750AC1
:1003700047CEFC0184E091E09183808310A28FEF4F
:1003800081A312A213A215A214A217A216A2089565
:10039000DC0190968C919097843099F493969C917F
:1003A000939792968C919297981758F493968C9174
:1003B0009397FD01E80FF11D92818F5F93968C93C7
:1003C00001C090E0892F0895EF92FF920F931F9341
:1003D000CF93DF93EC017A018B01622F70E080E014
:1003E00090E021E0E2162BE4F20620E0020720E094
:1003F000120758F028E93AE340E050E00E942E0A44
:100400002EEE32E040E050E012C0A80197010E94B9
:100410002E0A2CE434E040E050E00E944D0ACA016C
:10042000B90128E93AE340E050E00E942E0A0E9418
:100430004D0A2EA33FA3C901DF91CF911F910F91C8
:10044000FF90EF900895FC01862F8150873F10F0B8
:1004500080E0089561A381E00895CF93DF93582F42
:10046000282F392FD9013FEF2FEF12C012968C9110
:1004700012972827C22FD0E0CE0184589F4FFC014D
:1004800024912327C458DE4FFE0184911196382F02
:100490008A2F851B861750F3932F80E030E0282B9E
:1004A000392BC901DF91CF9108950F931F938C01D0
:1004B000FC0162A1D2DFF80122A1E20FF11D8283CB
:1004C0002F5FF80122A382A1E80FF11D92838F5FB5
:1004D000F80182A31F910F910895DC0181E09296AB
:1004E0008C93929792969C919297FD01E90FF11D42
:1004F0008281806882839F5F92969C939297929666
:100500008C919297FD01E80FF11D62838F5F9296A7
:100510008C930895FC01653050F4613021F412A2EF
:1005200015A214A203C0643009F413A260A30895B5
:100530000F931F93CF93DF93EC019A819F3F09F1B3
:1005400089A18917F1F48AA1843018F40FEF1FEF05
:1005500006C08AA1FE01E80FF11D008111816AA188
:100560006250CE017ADF0817190711F480E004C049
:10057000CE0161E0CFDF82E0DF91CF911F910F913B
:100580000895CE0161E0C6DF81E0F6CF0F931F939F
:10059000CF93DF93EC010CA11DA128A1213011F014
:1005A0002230D1F488E8083B180780F48EA19FA17F
:1005B000080F191F88E8083B180740F0213049F45C
:1005C0008AA1843030F0CE0163E0A4DF1DA30CA328
:1005D00003C0CE0161E0F9CFDF91CF911F910F9160
:1005E00008951F93CF93DF93EC011AA188A1813066
:1005F00081F4112349F08CA19DA188599A4388F078
:10060000CE0162E087DF05C0FE01E10FF11D6283CC
:100610001F5F1DA21CA21AA38AA1DF91CF911F9177
:1006200008951E31B0F7F0CF6F927F928F929F9214
:10063000AF92BF92CF92DF92EF92FF920F931F93F0
:10064000DF93CF930F92CDB7DEB78C01DC01149608
:100650004C91149715963C91159716969C91169768
:1006600080E017962C915C01A20EB11CC501019788
:10067000809718F0C80163E006C0F80182A18830B5
:1006800029F0C80164E029DF80E05DC0C50107965C
:1006900023E0969587952A95E1F7D80114968C93D7
:1006A00023E005C0F801E20FF11D12822F5F922FA7
:1006B0009350F80184819817A8F3C32EDD24089481
:1006C000C11CD11C942F80E0C80ED91E22A3EE2499
:1006D000FF243E010894611C711C91E0892E912C2D
:1006E0002BC01982D801ED91FC910190F081E02D91
:1006F000C801A3010995833019F4C80162E0C3CF92
:1007000089818823B1F0F70183E0F695E7958A9512
:10071000E1F73396E00FF11FC701877090709401E5
:1007200002C0220F331F8A95E2F7C9012281282BCC
:1007300022830894E11CF11CB7016C0D7D1DEA14A5
:10074000FB0478F281E00F90CF91DF911F910F9120
:10075000FF90EF90DF90CF90BF90AF909F908F90E1
:100760007F906F9008956F927F928F929F92AF9239
:10077000BF92CF92DF92EF92FF920F931F93DF937E
:10078000CF930F92CDB7DEB78C01DC0114964C915C
:10079000149715963C91159716969C91169780E0A4
:1007A00017962C915C01A20EB11CC5010197809790
:1007B00018F0C80163E006C0F80182A1883029F072
:1007C000C80164E08ADE80E05DC0C501079653E0A1
:1007D000969587955A95E1F7D80114968C9323E066
:1007E00005C0F801E20FF11D12822F5F922F935086
:1007F000F80184819817A8F3C32EDD240894C11C46
:10080000D11C942F80E0C80ED91E22A3EE24FF2411
:100810003E010894611C711C41E0842E912C2BC078
:100820001982D801ED91FC910280F381E02DC8017D
:10083000A3010995833019F4C80162E0C3CF89810F
:100840008823B1F0F70133E0F695E7953A95E1F7A3
:100850003396E00FF11FC70187709070940102C0BA
:10086000220F331F8A95E2F7C9012281282B2283A8
:100870000894E11CF11CB7016C0D7D1DEA14FB040A
:1008800078F281E00F90CF91DF911F910F91FF904F
:10089000EF90DF90CF90BF90AF909F908F907F9020
:1008A0006F9008954F925F926F927F928F929F9276
:1008B000AF92BF92CF92DF92EF92FF920F931F936E
:1008C000DF93CF9300D0CDB7DEB78C01DC01149657
:1008D0004C91149715963C91159716969C911697E6
:1008E00080E017962C914C01820E911CC401019757
:1008F000049718F0C80163E006C0F80182A18830AF
:1009000029F0C80164E0E9DD80E04EC0C401880F31
:10091000991FD80114968C9323E005C0F801E20FCB
:10092000F11D12822F5F922F9350F8018481981746
:10093000A8F3A32EBB240894A11CB11C942F80E023
:10094000A80EB91E22A36801EE24FF2444244A9471
:10095000542C3E010894611C711C1FC05A824982AC
:10096000D801ED91FC910480F581E02DC801A3012F
:100970000995E2E0F0E0CE0EDF1E833019F4C801E5
:1009800062E0C1CF99818A81D60113968C93139727
:1009900014969C930894E11CF11CB7016A0D7B1D11
:1009A000E814F904D8F281E00F900F90CF91DF9115
:1009B0001F910F91FF90EF90DF90CF90BF90AF907D
:1009C0009F908F907F906F905F904F9008954F927F
:1009D0005F926F927F928F929F92AF92BF92CF92CF
:1009E000DF92EF92FF920F931F93DF93CF9300D08C
:1009F000CDB7DEB78C01DC0114964C911497159697
:100A00003C91159716969C91169780E017962C911D
:100A10004C01820E911CC4010197049718F0C80183
:100A200063E006C0F80182A1883029F0C80164E0C3
:100A300054DD80E04EC0C401880F991FD801149680
:100A40008C9323E005C0F801E20FF11D12822F5FA5
:100A5000922F9350F80184819817A8F3A32EBB24FA
:100A60000894A11CB11C942F80E0A80EB91E22A3EB
:100A70006801EE24FF2444244A94542C3E01089437
:100A8000611C711C1FC05A824982D801ED91FC91F2
:100A90000680F781E02DC801A3010995E2E0F0E0AE
:100AA000CE0EDF1E833019F4C80162E0C1CF9981F8
:100AB0008A81D60113968C93139714969C9308946D
:100AC000E11CF11CB7016A0D7B1DE814F904D8F292
:100AD00081E00F900F90CF91DF911F910F91FF90C8
:100AE000EF90DF90CF90BF90AF909F908F907F90CE
:100AF0006F905F904F900895CF93DF93EC014C81FE
:100B00006D819E8180E02F81FC01E20FF11D9F012C
:100B1000309721F0FFEF20303F0721F58AA1883080
:100B200029F0CE0164E0D9DC80E024C0E881F981BD
:100B300070E06F5F7F4F942F80E0680F791F40E077
:100B400020503F4F09F441E00084F185E02DCE01B3
:100B50000995882361F0833019F4CE0162E0E3CF78
:100B6000843019F4CE0163E0DECF8530D1F286E027
:100B70008AA381E0DF91CF910895CF93DF93EC01B9
:100B80002C816D813E81AF818AA1883011F5E88189
:100B9000F98170E06F5F7F4F922F80E0680F791FBF
:100BA000532F40E04A0F511D0284F385E02DCE0102
:100BB0000995882389F0833029F4CE0162E08DDC29
:100BC00080E00DC0843019F4CE0163E0F8CF8530A9
:100BD00019F4CE0164E0F3CF86E08AA381E0DF91CF
:100BE000CF910895AF92BF92CF92DF92EF92FF9292
:100BF0000F931F93DF93CF930F92CDB7DEB75C01B6
:100C0000FC0154814581968180E027817C01E20EC0
:100C1000F11CC70101978097A0F4F501808527E0BA
:100C200030E0E20EF31E970193E0369527959A95F2
:100C3000E1F769EF7FEFE60EF71E90E0281739071E
:100C400019F0C50163E04BC0F50182A1275F3F4F5A
:100C500090E02817390709F040C0C42EDD2408941D
:100C6000C11CD11C952F80E0C80ED91E198200E04E
:100C700010E02AC0F501A081B181F80183E0F6956A
:100C8000E7958A95E1F7EA0DFB1D418550E0C80123
:100C90008770907002C0559547958A95E2F741702C
:100CA00050701896ED91FC911997C501099588230C
:100CB00049F0833019F4C50162E011C0853011F4A8
:100CC000F5E0F9830F5F1F4FB8016C0D7D1D0E1508
:100CD0001F0580F22981253029F4C50164E0FDDB80
:100CE00080E004C086E0F50182A381E00F90CF91FF
:100CF000DF911F910F91FF90EF90DF90CF90BF9009
:100D0000AF9008956F927F928F929F92AF92BF9211
:100D1000CF92DF92EF92FF920F931F93DF93CF93C7
:100D20000F92CDB7DEB73C01DC0114965C911497AD
:100D300015964C91159716969C91169780E01796EC
:100D40002C914C01820E911CC4010197049748F428
:100D5000F30180859401220F331F90E02817390793
:100D600019F0C30163E046C0D30192968C91275FCE
:100D70003F4F90E028173907D9F5A42EBB240894DB
:100D8000A11CB11C952F80E0A80EB91E6301198229
:100D9000EE24FF2424C0D301ED91FC91D6011996D5
:100DA0001C91199700E01A968C91A801480F511DCB
:100DB0000284F385E02DC3010995882349F083302F
:100DC00019F4C30162E016C0853011F4B5E0B983AF
:100DD0000894E11CF11CE2E0F0E0CE0EDF1EB7014A
:100DE0006A0D7B1DE814F904B0F2F981F53029F49D
:100DF000C30164E072DB80E005C086E0D301929617
:100E00008C9381E00F90CF91DF911F910F91FF9014
:100E1000EF90DF90CF90BF90AF909F908F907F909A
:100E20006F9008950F931F93DF93CF930F92CDB7D9
:100E3000DEB78C018EE18983D801ED91FC91B80178
:100E40006B5F7F4F0484F585E02DC801AE014F5FD5
:100E50005F4F0995843029F4C80164E03EDB80E0EF
:100E600006C08981F80184838D5F82A381E00F90A1
:100E7000CF91DF911F910F9108951F93CF93DF932F
:100E8000EC0156DB882311F010E042C08B818530E5
:100E900039F1863060F48230C9F0833018F4813043
:100EA00071F511C08330B1F0843049F516C08F3030
:100EB000E9F0803118F4863011F515C08031C9F0A1
:100EC0008131E9F419C0CE01AFDB02C0CE014BDCA9
:100ED000182F19C0CE01E6DCFBCFCE0178DDF8CFAC
:100EE000CE010ADEF5CFCE0148DEF2CFCE017ADEAA
:100EF000EFCFCE0107DFECCFCE0194DFE9CFCE01FB
:100F000061E0EBDA10E0CE01D0DACE0164E002DB82
:100F1000812FDF91CF911F91089583E0089583E0A1
:100F2000089583E0089583E0089583E0089583E0C1
:100F3000089585E00895FC0111A610A613A612A637
:100F400015A614A617A616A60895DC01FA01CB0172
:100F50000197049710F083E00895118210826230A7
:100F600091F0633018F4613061F405C0633019F01A
:100F7000643039F408C098968D919C91999791832B
:100F8000808380E008959A968D919C919B979183A0
:100F9000808380E00895DC01FA01CB01019702977C
:100FA00010F083E0089511821082613019F06230F0
:100FB00039F408C09C968D919C919D979183808374
:100FC00080E008959E968D919C919F979183808358
:100FD00080E00895FC01CB010197049710F083E0B5
:100FE0000895623079F0633018F46130D1F405C0AF
:100FF000633079F06430A9F416C080A591A5842BE4
:10100000952B0DC082A593A5842B952B93A782A722
:1010100008C04095509580A591A58423952391A75C
:1010200080A780E008954095509582A593A58423DC
:10103000952393A782A780E008950F931F93CF93E2
:10104000DF938C01DB01EB0120E030E0922FFA010D
:101050008081281710F085E019C0F901E458FD4F90
:10106000E491E9939F5F2F5F3F4F2630310571F781
:10107000F80180A1882311F48FEF01C080E0A90F4F
:10108000B11D8C939F5FFA01908380E0DF91CF9137
:101090001F910F9108951F920F920FB60F92112476
:1010A0002F938F939F938091C0002091C6008C71E5
:1010B00021F08FEF8093650331C08091650328177D
:1010C00011F581E0809361038FEF809365031092A7
:1010D0006403822F90E027FF09C026FF1FC0822FE4
:1010E0008F738430D8F48093630318C0689415F824
:1010F000969587951694E1F78170809368032F7316
:10110000209362030BC020936503809164038A30AF
:1011100028F4809164038F5F809364039F918F9183
:101120002F910F900FBE0F901F90189581E0809324
:1011300025011092240185E0809326021092270257
:101140001092290210922A0210922B021092280269
:101150001092340380E180933503109236038AEABB
:10116000809337038093380380934C0380934D031F
:10117000109256031092570310925803109259037D
:1011800010925A0380E580935B03ECE2F2E08FEF6C
:1011900010828183128283831482858316828783DF
:1011A000389693E0E433F90799F740E050E061E0C6
:1011B00070E0842F9A0127703070FB0102C0EE0F9F
:1011C000FF1F2A95E2F79F014F5F5F4F8695869537
:1011D000869590E0880F991FFA0133E0EE0FFF1F0C
:1011E0003A95E1F7EC5DFE4FE80FF91FE85FFE4F1F
:1011F00021932095208340325105D9F61092260183
:10120000E7E2F1E08FEF819392E0E632F907D9F758
:1012100020E030E041E050E0FA01022E02C0EE0F83
:10122000FF1F0A94E2F7EC5DFE4F822F8F5F8283EF
:101230002F5F3F4F2830310579F781E080936803B5
:1012400080936903109265038AE08093640310928F
:10125000610310926203109263038AE693E089D8D7
:1012600086E191E090936B0380936A038AE693E0B2
:1012700062CE1F920F920FB60F9211242F933F93BD
:101280004F935F936F937F938F939F93AF93BF938E
:10129000EF93FF93E9ECF0E080818F7B8083808186
:1012A000806880838AE693E061E034D9FF91EF9112
:1012B000BF91AF919F918F917F916F915F914F916E
:1012C0003F912F910F900FBE0F901F9018951F9276
:1012D0000F920FB60F9211242F933F934F935F936A
:1012E0006F937F938F939F93AF93BF93EF93FF93EE
:1012F00080918A03843071F490918D0380918C03E6
:10130000981740F4129A8AE693E042D88093CE0070
:10131000129805C08091C9008F7D8093C900FF910C
:10132000EF91BF91AF919F918F917F916F915F915D
:101330004F913F912F910F900FBE0F901F901895D6
:101340001F920F920FB60F9211242F933F934F933A
:101350005F936F937F938F939F93AF93BF93EF931D
:10136000FF938091C8006091CE008C7129F08AE6CD
:1013700093E061E0CFD803C08AE693E032D9FF91D1
:10138000EF91BF91AF919F918F917F916F915F91FD
:101390004F913F912F910F900FBE0F901F90189576
:1013A0001F920F920FB60F9211242F933F934F93DA
:1013B0005F936F937F938F939F93AF93BF93EF93BD
:1013C000FF938AE693E0E2D8FF91EF91BF91AF914E
:1013D0009F918F917F916F915F914F913F912F914D
:1013E0000F900FBE0F901F9018955C988AE693E0BF
:1013F00040E052EC61E070E026E90E94E4018AE6F8
:1014000093E061E020D88AE693E061E083D87894A5
:1014100080918A038330F9F4139A8AE693E02DDDF4
:1014200080918A038430B1F490918D0380918C0374
:10143000981780F48091C9008F778093C9008AE65D
:1014400093E00E94C8018093CE008091C90080661D
:101450008093C9001398019AA895DACF629FD001B2
:10146000739FF001829FE00DF11D649FE00DF11D5F
:10147000929FF00D839FF00D749FF00D659FF00D0E
:101480009927729FB00DE11DF91F639FB00DE11DFB
:10149000F91FBD01CF0111240895A1E21A2EAA1B44
:1014A000BB1BFD010DC0AA1FBB1FEE1FFF1FA21714
:1014B000B307E407F50720F0A21BB30BE40BF50B11
:1014C000661F771F881F991F1A9469F7609570959A
:1014D000809590959B01AC01BD01CF010895EE0F61
:0E14E000FF1F0590F491E02D0994F894FFCFC2
:1014EE00000000008D078F07910793079507970758
:1014FE009907000000008D078F07A507CB079507FA
:04150E00EA071D08C3
:00000001FF
